<!doctype html>
<!--
  Minimal Mistakes Jekyll Theme 4.19.2 by Michael Rose
  Copyright 2013-2019 Michael Rose - mademistakes.com | @mmistakes
  Free for personal and commercial use under the MIT license
  https://github.com/mmistakes/minimal-mistakes/blob/master/LICENSE
-->
<html lang="ko" class="no-js">
  <head>
    <!--ьЈ░ьіИ : "Nanum Gothic Coding", "Coming Soon"-->
    <link rel="preload" as="style" href="https://fonts.googleapis.com/css2?family=Coming+Soon&family=Nanum+Gothic+Coding&display=swap">
    <link rel="stylesheet" href="https://fonts.googleapis.com/css2?family=Coming+Soon&family=Nanum+Gothic+Coding&display=swap">
    
    <!--ьЈ░ьіИ : "Iropke Batang"-->
    <link rel="preload" as="style" href="https://cdn.jsdelivr.net/font-iropke-batang/1.2/font-iropke-batang.css">
    <link rel="stylesheet" href="https://cdn.jsdelivr.net/font-iropke-batang/1.2/font-iropke-batang.css">

    <!--ьЈ░ьіИ : "Cafe24Oneprettynight"-->
    
    <!--main.scss ВА░ЖИѕВЮ┤вЮ╝вЈё в╣евдг вАювЊю вљўЖИИ.. preload-->
    <link rel="preload" as="style" href="/assets/css/main.css">

    <meta charset="utf-8">

<!-- begin _includes/seo.html --><title>ьіИвъюВъГВЁў ьЋ┤ВІю(Transaction Hash)віћ Ж╝Г вИћвАЮВ▓┤ВЮИВЌљВёювДї вДївЊцВќ┤ВДђвіћЖ░ђ? - ВЏћвдгВЮў ьЃљЖхгВЃЮьЎю</title>
<meta name="description" content="ьіИвъюВъГВЁў ьЋ┤ВІюВЌљ вїђьЋю вѓ┤ВџЕЖ│╝ ВЮ┤вЦ╝ вДївЊювіћ Ж│╝ВаЋВЌљ вїђьЋўВЌг ВЋїВЋёв│ИвІц. ">


  <meta name="author" content="ЖИђВЊ░віћ Ж░юв░юВъљ ">


<meta property="og:type" content="article">
<meta property="og:locale" content="ko_KR">
<meta property="og:site_name" content="ВЏћвдгВЮў ьЃљЖхгВЃЮьЎю">
<meta property="og:title" content="ьіИвъюВъГВЁў ьЋ┤ВІю(Transaction Hash)віћ Ж╝Г вИћвАЮВ▓┤ВЮИВЌљВёювДї вДївЊцВќ┤ВДђвіћЖ░ђ?">
<meta property="og:url" content="http://localhost:4000/ethereum/transactionhash/">


  <meta property="og:description" content="ьіИвъюВъГВЁў ьЋ┤ВІюВЌљ вїђьЋю вѓ┤ВџЕЖ│╝ ВЮ┤вЦ╝ вДївЊювіћ Ж│╝ВаЋВЌљ вїђьЋўВЌг ВЋїВЋёв│ИвІц. ">







  <meta property="article:published_time" content="2022-05-20T00:00:00+09:00">



  <meta property="article:modified_time" content="2022-05-20T00:00:00+09:00">



  

  


<link rel="canonical" href="http://localhost:4000/ethereum/transactionhash/">




<script type="application/ld+json">
  {
    "@context": "https://schema.org",
    
      "@type": "Person",
      "name": "ВЏћвдг",
      "url": "http://localhost:4000/"
    
  }
</script>






<!-- end _includes/seo.html -->


<link href="/feed.xml" type="application/atom+xml" rel="alternate" title="ВЏћвдгВЮў ьЃљЖхгВЃЮьЎю Feed">

<!-- https://t.co/dKP3o1e -->
<meta name="viewport" content="width=device-width, initial-scale=1.0">

<script>
  document.documentElement.className = document.documentElement.className.replace(/\bno-js\b/g, '') + ' js ';
</script>

<!-- For all browsers -->
<link rel="stylesheet" href="/assets/css/main.css">

<!--[if IE]>
  <style>
    /* old IE unsupported flexbox fixes */
    .greedy-nav .site-title {
      padding-right: 3em;
    }
    .greedy-nav button {
      position: absolute;
      top: 0;
      right: 0;
      height: 100%;
    }
  </style>
<![endif]-->



    <!-- start custom head snippets -->

<!-- insert favicons. use https://realfavicongenerator.net/ -->

<!-- <link rel="apple-touch-icon" sizes="180x180" href="/apple-touch-icon.png">
<link rel="icon" type="image/png" sizes="32x32" href="/favicon-32x32.png">
<link rel="icon" type="image/png" sizes="16x16" href="/favicon-16x16.png">
<link rel="manifest" href="/site.webmanifest">
<link rel="mask-icon" href="/safari-pinned-tab.svg" color="#5bbad5">
<meta name="msapplication-TileColor" content="#da532c">
<meta name="theme-color" content="#ffffff"> -->

<link rel="apple-touch-icon" sizes="57x57" href="/assets/logo/apple-icon-57x57.png">
<link rel="apple-touch-icon" sizes="60x60" href="/assets/logo/apple-icon-60x60.png">
<link rel="apple-touch-icon" sizes="72x72" href="/assets/logo/apple-icon-72x72.png">
<link rel="apple-touch-icon" sizes="76x76" href="/assets/logo/apple-icon-76x76.png">
<link rel="apple-touch-icon" sizes="114x114" href="/assets/logo/apple-icon-114x114.png">
<link rel="apple-touch-icon" sizes="120x120" href="/assets/logo/apple-icon-120x120.png">
<link rel="apple-touch-icon" sizes="144x144" href="/assets/logo/apple-icon-144x144.png">
<link rel="apple-touch-icon" sizes="152x152" href="/assets/logo/apple-icon-152x152.png">
<link rel="apple-touch-icon" sizes="180x180" href="/assets/logo/apple-icon-180x180.png">
<link rel="icon" type="image/png" sizes="192x192"  href="/assets/logo/android-icon-192x192.png">
<link rel="icon" type="image/png" sizes="32x32" href="/assets/logo/favicon-32x32.png">
<link rel="icon" type="image/png" sizes="96x96" href="/assets/logo/favicon-96x96.png">
<link rel="icon" type="image/png" sizes="16x16" href="/assets/logo/favicon-16x16.png">
<link rel="manifest" href="/assets/logo/manifest.json">
<meta name="msapplication-TileColor" content="#ffffff">
<meta name="msapplication-TileImage" content="/assets/logo/ms-icon-144x144.png">
<meta name="theme-color" content="#ffffff">

<!-- end custom head snippets -->

    <!-- ВіцьЂгвАцв░ћ В╗цВіцьё░вДѕВЮ┤ВДЋ -->
    <style> 
      ::-webkit-scrollbar{width: 16px;}
      ::-webkit-scrollbar-track {background-color:#4b4f52; border-radius: 16px;}
      ::-webkit-scrollbar-thumb {background-color:#5e6265; border-radius: 16px;}
      ::-webkit-scrollbar-thumb:hover {background: #ffd24c;}
      ::-webkit-scrollbar-button:start:decrement,::-webkit-scrollbar-button:end:increment 
      {
          width:12px;height:12px;background:transparent;}
      }  

      
    </style>
  </head>

  <body class="layout--single wide">
    <nav class="skip-links">
  <h2 class="screen-reader-text">Skip links</h2>
  <ul>
    <li><a href="#site-nav" class="screen-reader-shortcut">Skip to primary navigation</a></li>
    <li><a href="#main" class="screen-reader-shortcut">Skip to content</a></li>
    <li><a href="#footer" class="screen-reader-shortcut">Skip to footer</a></li>
  </ul>
</nav>

    <!--[if lt IE 9]>
<div class="notice--danger align-center" style="margin: 0;">You are using an <strong>outdated</strong> browser. Please <a href="https://browsehappy.com/">upgrade your browser</a> to improve your experience.</div>
<![endif]-->

    

<div class="masthead">
  <div class="masthead__inner-wrap">
    <div class="masthead__menu">
      <nav id="site-nav" class="greedy-nav">
        
        <a class="site-title" href="/">
          ВЏћвдгВЮў ьЃљЖхгВЃЮьЎю
          
        </a>
        <ul class="visible-links"><li class="masthead__menu-item">
              <a href="/index.html">Home</a>
            </li><li class="masthead__menu-item">
              <a href="/categories/">Category</a>
            </li><li class="masthead__menu-item">
              <a href="/tags/">Tag</a>
            </li></ul>
        
        <button class="greedy-nav__toggle hidden" type="button">
          <span class="visually-hidden">В╣┤ьЁїЖ│авдг Click</span>
          <div class="navicon"></div>
        </button>
        <ul class="hidden-links hidden"></ul>
      </nav>
    </div>
  </div>
</div>


    <div class="initial-content">
      


  
    



<nav class="breadcrumbs">
  <ol itemscope itemtype="https://schema.org/BreadcrumbList">
    
    
    
      
        <li itemprop="itemListElement" itemscope itemtype="https://schema.org/ListItem">
          <a href="http://localhost:4000/" itemprop="item"><span itemprop="name">Home</span></a>
          <meta itemprop="position" content="1" />
        </li>
        <span class="sep">/</span>
      
      
        
        <li itemprop="itemListElement" itemscope itemtype="https://schema.org/ListItem">
          <a href="/categories/#ethereum" itemprop="item"><span itemprop="name">Ethereum</span></a>
          <meta itemprop="position" content="2" />
        </li>
        <span class="sep">/</span>
      
    
      
      
        <li class="current">ьіИвъюВъГВЁў ьЋ┤ВІю(Transaction Hash)віћ Ж╝Г вИћвАЮВ▓┤ВЮИВЌљВёювДї вДївЊцВќ┤ВДђвіћЖ░ђ?</li>
      
    
  </ol>
</nav>

  


<div id="main" role="main">
  
  <div class="sidebar sticky">
  


<div itemscope itemtype="https://schema.org/Person">

  
    <div class="author__avatar">
      
        <img src="/assets/images/profile.png" alt="ЖИђВЊ░віћ Ж░юв░юВъљ " itemprop="image">
      
    </div>
  

  <div class="author__content">
    
      <h3 class="author__name" itemprop="name">ЖИђВЊ░віћ Ж░юв░юВъљ </h3>
    
    
      <div class="author__bio" itemprop="description">
        <p>#TIL #ьЋўвБеьѓцв▓ЋВ╣Ў #ЖИ░вАЮ</p>

      </div>
    
  </div>

  <div class="author__urls-wrapper">
    <button class="btn btn--inverse">ьїћвАюВџ░</button>
    <ul class="author__urls social-icons">
      

      
        
          
            <li><a href="https://wnjoon.github.io/resume/" rel="nofollow noopener noreferrer"><i class="far fa-address-card" aria-hidden="true"></i><span class="label">Resume</span></a></li>
          
        
          
            <li><a href="mailto:wnjoon@gmail.com" rel="nofollow noopener noreferrer"><i class="fas fa-fw fa-envelope-square" aria-hidden="true"></i><span class="label">Email</span></a></li>
          
        
          
            <li><a href="https://github.com/wnjoon" rel="nofollow noopener noreferrer"><i class="fab fa-fw fa-github" aria-hidden="true"></i><span class="label">GitHub</span></a></li>
          
        
      

      

      

      

      

      

      

      

      

      

      

      

      

      

      

      

      

      

      

      

      

      

      

      

      

      <!--
  <li>
    <a href="http://link-to-whatever-social-network.com/user/" itemprop="sameAs" rel="nofollow noopener noreferrer">
      <i class="fas fa-fw" aria-hidden="true"></i> Custom Social Profile Link
    </a>
  </li>
-->
    </ul>
  </div>
</div>

  

  
    

<nav class="nav__list">
  <input id="ac-toc" name="accordion-toc" type="checkbox" />
  <label for="ac-toc">В╣┤ьЁїЖ│авдг Click</label>
  <ul class="nav__items" id="category_tag_menu">
      <li>
            <span style="font-family:'Chosunilbo_myungjo';">ВаёВ▓┤ ЖИђ Вѕў</style> <span style="font-family:'Chosunilbo_myungjo';">65</style> <span style="font-family:'Chosunilbo_myungjo';">Ж░ю</style> 
      </li>
      <li>
        <!-- Ж░юв░ю -->
        <span class="nav__sub-title">Ж░юв░ю</span>
            <!-- Ж░юв░ю/Algorithm -->
            <ul>
                
                    
                
                    
                
                    
                
                    
                
                    
                
                    
                        <li><a href="/categories/algorithm" class="">Algorithm (7)</a></li>
                    
                
                    
                
                    
                
                    
                
                    
                
                    
                
                    
                
                    
                
                    
                
                    
                
            </ul>
            <!-- Ж░юв░ю/Backend -->
            <ul>
                
                    
                
                    
                
                    
                        <li><a href="/categories/backend" class="">Backend (2)</a></li>
                    
                
                    
                
                    
                
                    
                
                    
                
                    
                
                    
                
                    
                
                    
                
                    
                
                    
                
                    
                
                    
                
            </ul>
            <!-- Ж░юв░ю/Blockchain -->
            <ul>
                
                    
                
                    
                
                    
                
                    
                
                    
                        <li><a href="/categories/blockchain" class="">Blockchain (8)</a></li>
                    
                
                    
                
                    
                
                    
                
                    
                
                    
                
                    
                
                    
                
                    
                
                    
                
                    
                
            </ul>
            <!-- Ж░юв░ю/Blockchain/Ethereum -->
            <ul>
                
                    
                
                    
                
                    
                
                    
                
                    
                
                    
                
                    
                        <li><a href="/categories/ethereum" class=""> - Ethereum (14)</a></li>
                    
                
                    
                
                    
                
                    
                
                    
                
                    
                
                    
                
                    
                
                    
                
            </ul>
            <!-- Ж░юв░ю/Blockchain/Hyperledger -->
            <ul>
                
                    
                        <li><a href="/categories/hyperledger" class=""> - Hyperledger (3)</a></li>
                    
                
                    
                
                    
                
                    
                
                    
                
                    
                
                    
                
                    
                
                    
                
                    
                
                    
                
                    
                
                    
                
                    
                
                    
                
            </ul>
            <!-- Ж░юв░ю/Docker -->
            <ul>
                
                    
                
                    
                
                    
                
                    
                
                    
                
                    
                
                    
                
                    
                
                    
                
                    
                
                    
                
                    
                
                    
                
                    
                
                    
                        <li><a href="/categories/docker" class="">Docker (1)</a></li>
                    
                
            </ul>
            <!-- Ж░юв░ю/Go -->
            <ul>
                
                    
                
                    
                
                    
                
                    
                
                    
                
                    
                
                    
                
                    
                
                    
                
                    
                
                    
                
                    
                
                    
                
                    
                        <li><a href="/categories/go" class="">Go (1)</a></li>
                    
                
                    
                
            </ul>
            <!-- Ж░юв░ю/Java -->
            <ul>
                
                    
                
                    
                
                    
                
                    
                
                    
                
                    
                
                    
                
                    
                
                    
                
                    
                
                    
                
                    
                
                    
                        <li><a href="/categories/java" class="">Java (1)</a></li>
                    
                
                    
                
                    
                
            </ul>
            <!-- Ж░юв░ю/Kubernetes -->
            <ul>
                
                    
                
                    
                
                    
                
                    
                
                    
                
                    
                
                    
                
                    
                        <li><a href="/categories/kubernetes" class="">Kubernetes (15)</a></li>
                    
                
                    
                
                    
                
                    
                
                    
                
                    
                
                    
                
                    
                
            </ul>
            <!-- Ж░юв░ю/Network -->
            <ul>
                
                    
                
                    
                
                    
                
                    
                
                    
                
                    
                
                    
                
                    
                
                    
                
                    
                        <li><a href="/categories/network" class="">Network (1)</a></li>
                    
                
                    
                
                    
                
                    
                
                    
                
                    
                
            </ul>
            <!-- Ж░юв░ю/System Design -->
            <ul>
                
                    
                
                    
                
                    
                
                    
                
                    
                
                    
                
                    
                
                    
                
                    
                        <li><a href="/categories/system_design" class="">System Design (2)</a></li>
                    
                
                    
                
                    
                
                    
                
                    
                
                    
                
                    
                
            </ul>
            <!-- Ж░юв░ю/Tools -->
            <ul>
                
                    
                
                    
                
                    
                
                    
                        <li><a href="/categories/tools" class="">Ж░юв░ю вЈёЖхг (6)</a></li>
                    
                
                    
                
                    
                
                    
                
                    
                
                    
                
                    
                
                    
                
                    
                
                    
                
                    
                
                    
                
            </ul>
        <!-- ВЮ╝ВЃЂ -->
        <span class="nav__sub-title">ВЮ╝ВЃЂ</span>
            <!-- ВЮ╝ВЃЂ/ВъАьЋЎвІцВІЮ -->
            <ul>
                
                    
                
                    
                
                    
                
                    
                
                    
                
                    
                
                    
                
                    
                
                    
                
                    
                
                    
                        <li><a href="/categories/etc" class="">ВъАьЋЎвІцВІЮ (1)</a></li>
                    
                
                    
                
                    
                
                    
                
                    
                
            </ul>
            <!-- ВЮ╝ВЃЂ/ьЏёЖИ░ -->
            <ul>
                
                    
                
                    
                
                    
                
                    
                
                    
                
                    
                
                    
                
                    
                
                    
                
                    
                
                    
                
                    
                        <li><a href="/categories/review" class="">ьЏёЖИ░ (1)</a></li>
                    
                
                    
                
                    
                
                    
                
            </ul>
            <!-- ВЮ╝ВЃЂ/ьџїЖ│а -->
            <ul>
                
                    
                
                    
                        <li><a href="/categories/retrospect" class="">ьџїЖ│а (2)</a></li>
                    
                
                    
                
                    
                
                    
                
                    
                
                    
                
                    
                
                    
                
                    
                
                    
                
                    
                
                    
                
                    
                
                    
                
            </ul>
      </li>
      <li>	
            <br>      
            <!-- в░ЕвгИВъљ Вѕў В╣┤Вџ┤ьіИьЋўвіћ вХђвХёВЮИвЇ░.. вГћЖ░ђ ВЮ┤ВЃЂьЋе.. вѓ┤Ж░ђ ьЁїВіцьіИьЋ┤в│┤вац вЊцВќ┤Ж░ћвІцвѓўВўцвіћ вфевЊа Ж▓ЃвЈё В╣┤Вџ┤ьіИвљўВќ┤Вёю вДцВџ░ вХђвІ┤ВіцвЪгВЏђ -->
           <a href="https://hits.seeyoufarm.com"><img src="https://hits.seeyoufarm.com/api/count/incr/badge.svg?url=https%3A%2F%2Fwnjoon.github.io&count_bg=%233D53C8&title_bg=%23B4B014&icon=&icon_color=%23E7E7E7&title=visitors&edge_flat=false"/></a>
      </li>
  </ul>
</nav>


  

  </div>




  <article class="page" itemscope itemtype="https://schema.org/CreativeWork">
    <meta itemprop="headline" content="ьіИвъюВъГВЁў ьЋ┤ВІю(Transaction Hash)віћ Ж╝Г вИћвАЮВ▓┤ВЮИВЌљВёювДї вДївЊцВќ┤ВДђвіћЖ░ђ?">
    <meta itemprop="description" content="ьіИвъюВъГВЁў ьЋ┤ВІюВЌљ вїђьЋю вѓ┤ВџЕЖ│╝ ВЮ┤вЦ╝ вДївЊювіћ Ж│╝ВаЋВЌљ вїђьЋўВЌг ВЋїВЋёв│ИвІц.">
    <meta itemprop="datePublished" content="2022-05-20T00:00:00+09:00">
    <meta itemprop="dateModified" content="2022-05-20T00:00:00+09:00">

    <div class="page__inner-wrap">
      
        <header>
          <h1 id="page-title" class="page__title" itemprop="headline">ьіИвъюВъГВЁў ьЋ┤ВІю(Transaction Hash)віћ Ж╝Г вИћвАЮВ▓┤ВЮИВЌљВёювДї вДївЊцВќ┤ВДђвіћЖ░ђ?
</h1>
          
            <p class="page__meta"><strong><i class="fas fa-fw fa-calendar-alt" aria-hidden="true"></i> Date:</strong> <time datetime="2022-05-20T00:00:00+09:00">2022.05.20</time>&nbsp&nbsp&nbsp<strong><i class="fas fa-fw fa-calendar-alt" aria-hidden="true"></i> Updated:</strong> <time datetime="2022-05-20">2022.05.20</time></p>
          
          
            


  
  
  

  <p class="page__taxonomy">
    <strong><i class="fas fa-fw fa-folder-open" aria-hidden="true"></i> В╣┤ьЁїЖ│авдг: </strong>
    <span itemprop="keywords">
    
      
      
      <a href="/categories/#ethereum" class="page__taxonomy-item-category" rel="tag">Ethereum</a>
    
    </span>
  </p>



  
  
  

  <p class="page__taxonomy">
    <strong><i class="fas fa-fw fa-tags" aria-hidden="true"></i> ьЃюЖиИ: </strong>
    <span itemprop="keywords">
    
      
      
      <a href="/tags/#ethereum" class="page__taxonomy-item-tag" rel="tag">Ethereum</a><span class="sep"> </span>
    
      
      
      <a href="/tags/#keccak" class="page__taxonomy-item-tag" rel="tag">keccak</a><span class="sep"> </span>
    
      
      
      <a href="/tags/#transaction" class="page__taxonomy-item-tag" rel="tag">Transaction</a><span class="sep"> </span>
    
      
      
      <a href="/tags/#blockchain" class="page__taxonomy-item-tag" rel="tag">Blockchain</a>
    
    </span>
  </p>

          
        </header>
      

      <section class="page__content" itemprop="text">
        
          <aside class="sidebar__right sticky">
            <nav class="toc">
              <header><h4 class="nav__title"><i class="fas fa-align-left"></i> вфЕВ░е</h4></header>
              <ul class="toc__menu">
  <li><a href="#ьіИвъюВъГВЁў-ьЋ┤ВІювъђ">ьіИвъюВъГВЁў ьЋ┤ВІювъђ?</a></li>
  <li><a href="#ьіИвъюВъГВЁў-ьЋ┤ВІюВЮў-ВЃЮВё▒-Ж│╝ВаЋ">ьіИвъюВъГВЁў ьЋ┤ВІюВЮў ВЃЮВё▒ Ж│╝ВаЋ</a></li>
  <li><a href="#ьіИвъюВъГВЁў-ьЋ┤ВІюВЮў-ВЃЮВё▒-в░Ев▓Ћ">ьіИвъюВъГВЁў ьЋ┤ВІюВЮў ВЃЮВё▒ в░Ев▓Ћ</a></li>
  <li><a href="#web3js">Web3js</a>
    <ul>
      <li><a href="#1-ьіИвъюВъГВЁў-ьЋ┤ВІю-ВЃЮВё▒--ethsendtransaction">1. ьіИвъюВъГВЁў ьЋ┤ВІю ВЃЮВё▒ : eth.sendTransaction</a></li>
      <li><a href="#2-rawtransaction-ВЃЮВё▒--ethaccountssigntransaction">2. RawTransaction ВЃЮВё▒ : eth.accounts.signTransaction</a></li>
      <li><a href="#3-nonce">3. Nonce</a></li>
      <li><a href="#4-rawtransactionВю╝вАю-ьіИвъюВъГВЁў-ВаёВєА--sendsignedtransaction">4. RawTransactionВю╝вАю ьіИвъюВъГВЁў ВаёВєА : sendSignedTransaction</a></li>
    </ul>
  </li>
  <li><a href="#Ж▓░вАа">Ж▓░вАа</a></li>
  <li><a href="#В░ИЖ│аВъљвБї">В░ИЖ│аВъљвБї</a></li>
</ul>

            </nav>
          </aside>
        
        <p><br /></p>

<h2 id="ьіИвъюВъГВЁў-ьЋ┤ВІювъђ">ьіИвъюВъГВЁў ьЋ┤ВІювъђ?</h2>

<p>ьіИвъюВъГВЁў ьЋ┤ВІю(Transaction Hash, вўљвіћ ВцёВЌгВёю TXID)віћ <u>ьіИвъюВъГВЁўВЌљ вїђьЋю Ж│аВюа ID</u>вЦ╝ ВЮўв»ИьЋювІц. ВЮ╝в░ўВаЂВю╝вАю ьіИвъюВъГВЁўВЮђ ВЋёвъўВЎђ Ж░ЎВЮђ ВаЋв│┤вЦ╝ Ж░ќвіћвІц.</p>

<div class="language-sh highlighter-rouge"><div class="highlight"><pre class="highlight"><code><span class="o">{</span>
  from : ВєАВІаВъљ ВДђЖ░ЉВЮў ВБ╝Вєї,
  to : ВѕўВІаВъљ ВДђЖ░ЉВЮў ВБ╝Вєї,
  value : ВаёВєАьЋю ВЮ┤вЇћ вўљвіћ ьєаьЂ░ВЮў Ж░юВѕў,
  gasPrice : ьіИвъюВъГВЁў ВаёВєАВЌљ ВѓгВџЕвљўвіћ Ж░ђВіцвЪЅ,
  ....
<span class="o">}</span>
</code></pre></div></div>

<p><br /></p>

<h2 id="ьіИвъюВъГВЁў-ьЋ┤ВІюВЮў-ВЃЮВё▒-Ж│╝ВаЋ">ьіИвъюВъГВЁў ьЋ┤ВІюВЮў ВЃЮВё▒ Ж│╝ВаЋ</h2>

<p>ьіИвъюВъГВЁў ьЋ┤ВІюЖ░ђ вДївЊцВќ┤ВДђЖИ░ ВюёьЋ┤Вёювіћ ВюёВЌљВёю ВќИЖИЅьЋю <u>1) ьіИвъюВъГВЁў ВаЋв│┤</u>ВЎђ <u>2) ьіИвъюВъГВЁўВЮё ВаёВєАьЋўвіћ ВДђЖ░ЉВЮў Ж░юВЮИьѓц</u>Ж░ђ ьЋёВџћьЋўвІц. Ж░юВЮИьѓцвЦ╝ ьєхьЋ┤ ьіИвъюВъГВЁўВЮё в│┤вѓИ ВѓгвъїВЮ┤ в│ИВЮИВъёВЮё ВдЮвфЁьЋа Вѕў ВъѕвіћвЇ░, ВЮ┤вЪгьЋю ВдЮвфЁ Ж│╝ВаЋВЮё <u>ВёювфЁ(signature)</u>ВЮ┤вЮ╝Ж│а ьЋювІц.</p>

<p><img src="https://user-images.githubusercontent.com/39115630/169449935-9f3ceda3-a64f-443e-b829-8d75d39f45a7.png" alt="image" /><br />
<em>&lt;ЖиИвд╝ 1: ьіИвъюВъГВЁў ьЋ┤ВІюЖ░ђ ВЃЮВё▒вљўвіћ Ж│╝ВаЋ&gt;</em></p>

<p>ьіИвъюВъГВЁў ВаЋв│┤ВЎђ ВёювфЁВЮ┤ вИћвАЮВ▓┤ВЮИ вЁИвЊювАю ВаёвІгвљўвЕ┤, вИћвАЮВ▓┤ВЮИ вЁИвЊювіћ вЉљ ВаЋв│┤вЦ╝ RLP encodingВЮё ьєхьЋ┤ RawTransactionВю╝вАю вДївЊавІц. ВўѕВІювАю ВЋёвъўВЎђ Ж░ЎВЮђ RawTransactionВЮ┤ ВъѕвІцЖ│а ьЋа вЋї, ВЮ┤вЦ╝ ьЋ┤ВёЮ(decode)ьЋўвЕ┤ ВІцВаю ВаёВєАьќѕвЇў ьіИвъюВъГВЁўВЮў вѓ┤ВџЕВЮё ьЎЋВЮИьЋа Вѕў ВъѕвІц. ВЮ┤ вЋї ьЎЋВЮИьЋа Вѕў Въѕвіћ(вЊцВќ┤Въѕвіћ) вѓ┤ВџЕВЮђ ВЋёвъўВЎђ Ж░ЎвІц.</p>

<div class="language-sh highlighter-rouge"><div class="highlight"><pre class="highlight"><code><span class="o">{</span>
  nonce : ьЋ┤вІ╣ ьіИвъюВъГВЁўВЮў вЁ╝ВіцЖ░њ,
  gasPrice : ьЋ┤вІ╣ ьіИвъюВъГВЁўВЮў Ж░ђВіц ВѕўВѕўвБї,
  gas : ьЋ┤вІ╣ ьіИвъюВъГВЁўВЮё ВѕўьќЅьЋа вЋїВЮў Ж░ђВіцвдгв░І<span class="o">(</span>gasLimit<span class="o">)</span>,
  to : ВѕўВІаВъљ ВДђЖ░Љ ВБ╝Вєї,
  value : ВаёВєАвЪЅ,
  data : ьіИвъюВъГВЁўВЌљ ВХћЖ░ђвАю в│┤вѓ┤віћ вЇ░ВЮ┤ьё░,
  v : ВёювфЁ Ж░њ,
  r : ВёювфЁ Ж░њ,
  s : ВёювфЁ Ж░њ
<span class="o">}</span>
</code></pre></div></div>

<p>ВюёВЮў вѓ┤ВџЕвЊцВЮ┤ ьі╣ВаЋ ЖхгвгИЖ░њЖ│╝ ьЋеЖ╗ў ВѕюВёювїђвАю ВА░ьЋЕвљўВќ┤ ьЋўвѓўВЮў 16ВДёВѕў ьўЋьЃювАю ЖхгВё▒вљювІц. ВъљВёИьЋю вѓ┤ВџЕВЮђ Рђў<a href="https://brunch.co.kr/@nujabes403/15#comment">ьіИвъюВъГВЁў ьЋ┤ВІю(TXID)ВЌљ вїђьЋю ВўцьЋ┤</a>РђўвЦ╝ ьЎЋВЮИьЋўвЕ┤ ВбІвІц.</p>

<p><br /></p>

<h2 id="ьіИвъюВъГВЁў-ьЋ┤ВІюВЮў-ВЃЮВё▒-в░Ев▓Ћ">ьіИвъюВъГВЁў ьЋ┤ВІюВЮў ВЃЮВё▒ в░Ев▓Ћ</h2>

<p>ьіИвъюВъГВЁў ьЋ┤ВІювіћ Ж▓░ЖхГ <u>keccak256(rawTransaction)</u>ВЮў Ж▓░Ж│╝ Ж░њВЮ┤вІц. <a href="https://leventozturk.com/engineering/sha3/">ONLINE SHA-3 Keccak CALCULATOR - CODE GENERATOR</a>ВЌљВёю RawTransactionВЮё keccak256ВЮё ьєхьЋ┤ ьіИвъюВъГВЁў ьЋ┤ВІювАю вДївЊцВќ┤в│╝ Вѕў ВъѕвіћвЇ░, ьЋ┤вІ╣ ьіИвъюВъГВЁўВЮ┤ ВЮ┤вЇћвдгВЏђ вёцьіИВЏїьЂгВЌљ ВаёВєАвљўВќ┤ ВъѕвІцвЕ┤ ВЮ┤вЦ╝ ВЮ┤вЇћВіцВ║ћ(<a href="https://etherscan.io">Etherscan</a>)ВЌљВёю ВА░ьџїьЋа Вѕў ВъѕвІц. ВЌгЖИ░Вёю ВА░ьџї ВА░Ж▒┤ВЮИ ьіИвъюВъГВЁўьЋ┤ВІюЖ░њВЮђ ВЋъВЌљ 0xвЦ╝ вХЎВЌгВцўВЋ╝ ьЋювІц.</p>
<ul>
  <li>https://etherscan.io/tx/ьіИвъюВъГВЁўьЋ┤ВІюЖ░њ : ьіИвъюВъГВЁўВЌљ вЊцВќ┤Ж░ђВъѕвіћ ВаЋв│┤вЊцВЮё в│╝ Вѕў ВъѕвІц.</li>
  <li>https://etherscan.io/getRawTx?tx=ьіИвъюВъГВЁўьЋ┤ВІюЖ░њ  : ьЋ┤вІ╣ ьіИвъюВъГВЁўВЮў RawTransactionВЮё ьЎЋВЮИьЋа Вѕў ВъѕвІц.</li>
</ul>

<p><br /></p>

<h2 id="web3js">Web3js</h2>

<h3 id="1-ьіИвъюВъГВЁў-ьЋ┤ВІю-ВЃЮВё▒--ethsendtransaction">1. ьіИвъюВъГВЁў ьЋ┤ВІю ВЃЮВё▒ : eth.sendTransaction</h3>

<p><a href="https://web3js.readthedocs.io/en/v1.7.3/web3-eth.html?highlight=sendTransaction#sendtransaction">web3js.readthedocs.io - eth.sendTransaction</a>ВЌљВёювіћ Web3jsвЦ╝ ьЎюВџЕьЋю ьіИвъюВъГВЁў ВаёВєА в░Ј ьЋ┤ВІю в░ўьЎў в░Ев▓ЋВЌљ вїђьЋ┤ ВёцвфЁьЋўЖ│а ВъѕвІц.</p>

<div class="language-js highlighter-rouge"><div class="highlight"><pre class="highlight"><code><span class="c1">// using the event emitter</span>
<span class="nx">web3</span><span class="p">.</span><span class="nx">eth</span><span class="p">.</span><span class="nx">sendTransaction</span><span class="p">({</span>
    <span class="na">from</span><span class="p">:</span> <span class="dl">'</span><span class="s1">0xde0B295669a9FD93d5F28D9Ec85E40f4cb697BAe</span><span class="dl">'</span><span class="p">,</span>
    <span class="na">to</span><span class="p">:</span> <span class="dl">'</span><span class="s1">0x11f4d0A3c12e86B4b5F39B213F7E19D048276DAe</span><span class="dl">'</span><span class="p">,</span>
    <span class="na">value</span><span class="p">:</span> <span class="dl">'</span><span class="s1">1000000000000000</span><span class="dl">'</span>
<span class="p">})</span>
<span class="p">.</span><span class="nx">on</span><span class="p">(</span><span class="dl">'</span><span class="s1">transactionHash</span><span class="dl">'</span><span class="p">,</span> <span class="kd">function</span><span class="p">(</span><span class="nx">hash</span><span class="p">){</span>
    <span class="p">...</span>
<span class="p">})</span>
<span class="p">.</span><span class="nx">on</span><span class="p">(</span><span class="dl">'</span><span class="s1">receipt</span><span class="dl">'</span><span class="p">,</span> <span class="kd">function</span><span class="p">(</span><span class="nx">receipt</span><span class="p">){</span>
    <span class="p">...</span>
<span class="p">})</span>
<span class="p">.</span><span class="nx">on</span><span class="p">(</span><span class="dl">'</span><span class="s1">confirmation</span><span class="dl">'</span><span class="p">,</span> <span class="kd">function</span><span class="p">(</span><span class="nx">confirmationNumber</span><span class="p">,</span> <span class="nx">receipt</span><span class="p">){</span> <span class="p">...</span> <span class="p">})</span>
<span class="p">.</span><span class="nx">on</span><span class="p">(</span><span class="dl">'</span><span class="s1">error</span><span class="dl">'</span><span class="p">,</span> <span class="nx">console</span><span class="p">.</span><span class="nx">error</span><span class="p">);</span> <span class="c1">// If a out of gas error, the second parameter is the receipt.</span>
</code></pre></div></div>

<p>ВюёВЮў ВйћвЊюВЌљВёю .onВю╝вАю ВІюВъЉвљўвіћ вѓ┤ВџЕвЊцВЌљ вїђьЋю ВёцвфЁВЮђ ВЋёвъўВЎђ Ж░ЎвІц.</p>
<ul>
  <li>on(РђўtransactionHashРђЎ Рђд) : ьіИвъюВъГВЁў ьЋ┤ВІюЖ░ђ вЁИвЊювАювХђьё░ в░ўьЎўвљўВЌѕВЮё Ж▓йВџ░ ВІцьќЅьЋа вѓ┤ВџЕвЊц</li>
  <li>on(РђўreceiptРђЎ Рђд) : ьіИвъюВъГВЁўВЮ┤ вИћвАЮВЌљ ьЈгьЋевљўВЌѕВЮё Ж▓йВџ░ ВІцьќЅьЋа вѓ┤ВџЕвЊц</li>
  <li>on(РђўconfirmationРђЎ Рђд) : ьіИвъюВъГВЁўВЮ┤ вИћвАЮВ▓┤ВЮИВЌљВёю confirm вљўВЌѕВЮё Ж▓йВџ░ ВІцьќЅьЋа вѓ┤ВџЕвЊц</li>
  <li>on(РђўerrorРђЎ Рђд) : ьіИвъюВъГВЁў ВаёВєА Ж│╝ВаЋВЌљВёю ВЌљвЪгЖ░ђ в░юВЃЮьЋўВўђВЮё Ж▓йВџ░ ВІцьќЅьЋа вѓ┤ВџЕвЊц</li>
</ul>

<h3 id="2-rawtransaction-ВЃЮВё▒--ethaccountssigntransaction">2. RawTransaction ВЃЮВё▒ : eth.accounts.signTransaction</h3>

<p>ВюёВЮў вѓ┤ВџЕВЮ┤ ьіИвъюВъГВЁўВЮё ВаёВєАьЋўвіћ ьЋеВѕўВўђвІцвЕ┤, ВЮ┤ ьЋеВѕў(<a href="https://web3js.readthedocs.io/en/v1.7.3/web3-eth-accounts.html?highlight=signTransaction#signtransaction">eth.accounts.signTransaction</a>)віћ ьіИвъюВъГВЁўВЮў ВаЋв│┤ВЎђ Ж░юВЮИьѓцвЦ╝ ВЮ┤ВџЕьЋўВЌг rawTransactionВЮё ВЃЮВё▒ьЋ┤ВБ╝віћ ьЋеВѕўВЮ┤вІц.</p>

<div class="language-js highlighter-rouge"><div class="highlight"><pre class="highlight"><code><span class="nx">web3</span><span class="p">.</span><span class="nx">eth</span><span class="p">.</span><span class="nx">accounts</span><span class="p">.</span><span class="nx">signTransaction</span><span class="p">({</span>
    <span class="na">to</span><span class="p">:</span> <span class="dl">'</span><span class="s1">0xF0109fC8DF283027b6285cc889F5aA624EaC1F55</span><span class="dl">'</span><span class="p">,</span>
    <span class="na">value</span><span class="p">:</span> <span class="dl">'</span><span class="s1">1000000000</span><span class="dl">'</span><span class="p">,</span>
    <span class="na">gas</span><span class="p">:</span> <span class="mi">2000000</span><span class="p">,</span>
    <span class="na">gasPrice</span><span class="p">:</span> <span class="dl">'</span><span class="s1">234567897654321</span><span class="dl">'</span><span class="p">,</span>
    <span class="na">nonce</span><span class="p">:</span> <span class="mi">0</span><span class="p">,</span>
    <span class="na">chainId</span><span class="p">:</span> <span class="mi">1</span>
<span class="p">},</span> <span class="dl">'</span><span class="s1">0x4c0883a69102937d6231471b5dbb6204fe5129617082792ae468d01a3f362318</span><span class="dl">'</span><span class="p">)</span>
<span class="p">.</span><span class="nx">then</span><span class="p">(</span><span class="nx">console</span><span class="p">.</span><span class="nx">log</span><span class="p">);</span>
<span class="o">&gt;</span> <span class="p">{</span>
    <span class="na">messageHash</span><span class="p">:</span> <span class="dl">'</span><span class="s1">0x6893a6ee8df79b0f5d64a180cd1ef35d030f3e296a5361cf04d02ce720d32ec5</span><span class="dl">'</span><span class="p">,</span>
    <span class="na">r</span><span class="p">:</span> <span class="dl">'</span><span class="s1">0x9ebb6ca057a0535d6186462bc0b465b561c94a295bdb0621fc19208ab149a9c</span><span class="dl">'</span><span class="p">,</span>
    <span class="na">s</span><span class="p">:</span> <span class="dl">'</span><span class="s1">0x440ffd775ce91a833ab410777204d5341a6f9fa91216a6f3ee2c051fea6a0428</span><span class="dl">'</span><span class="p">,</span>
    <span class="na">v</span><span class="p">:</span> <span class="dl">'</span><span class="s1">0x25</span><span class="dl">'</span><span class="p">,</span>
    <span class="na">rawTransaction</span><span class="p">:</span> <span class="dl">'</span><span class="s1">0xf86a8086d55698372431831e848094f0109fc8df283027b6285cc889f5aa624eac1f55843b9aca008025a009ebb6ca057a0535d6186462bc0b465b561c94a295bdb0621fc19208ab149a9ca0440ffd775ce91a833ab410777204d5341a6f9fa91216a6f3ee2c051fea6a0428</span><span class="dl">'</span>
    <span class="na">transactionHash</span><span class="p">:</span> <span class="dl">'</span><span class="s1">0xd8f64a42b57be0d565f385378db2f6bf324ce14a594afc05de90436e9ce01f60</span><span class="dl">'</span>
<span class="p">}</span>

<span class="p">}</span>
</code></pre></div></div>

<p>Ж▓░ЖхГ ВЮ┤ ьЋеВѕўвЦ╝ ьЎюВџЕьЋўвЕ┤ ьіИвъюВъГВЁўВЮё вИћвАЮВ▓┤ВЮИВЌљ ВаёВєАьЋўВДђ ВЋіЖ│авЈё rawTransactionВЮё Вќ╗ВЮё Вѕў ВъѕЖ│а, ВЮ┤вЦ╝ keccak256 ьЋеВѕўвАю в░ўьЎўьЋўВЌг в»Ивдг ьіИвъюВъГВЁў ьЋ┤ВІюЖ░њВЮё ьЎЋВЮИьЋа ВѕўвЈё ВъѕвІц.</p>

<h3 id="3-nonce">3. Nonce</h3>

<p>ЖиИвЪ░вЇ░ ВюёВЮў eth.accounts.signTransaction ьЋеВѕўвЦ╝ в│┤вЕ┤ вЁ╝Віц(nonce) Ж░њВЮ┤ ьЋёВџћьЋўвІц. вИћвАЮВ▓┤ВЮИВЌљ ВІцВаю ьіИвъюВъГВЁўВЮё ВаёВєАьЋўВДђ ВЋіЖ│авЈё Вќ┤вќ╗Ж▓ї вЁ╝ВіцвЦ╝ ьЎЋВЮИьЋа Вѕў ВъѕВЮёЖ╣ї?<br />
ВЌгЖИ░ВёюВЮў вЁ╝Віцвіћ <u>ьіИвъюВъГВЁўВЮё ВаёВєАьЋўвіћ ВДђЖ░ЉВЮў trasnaction count, ВдЅ ьі╣ВаЋ ВДђЖ░Љ(Ж│ёВаЋ)ВЮ┤ ВДђЖИѕЖ╣їВДђ вИћвАЮВ▓┤ВЮИВЌљ ВаёВєАьЋю ьіИвъюВъГВЁўВЮў Ж░юВѕў</u>вЦ╝ ВЮўв»ИьЋювІц. ВЮ┤ Ж░њВЮђ <a href="https://web3js.readthedocs.io/en/v1.7.3/web3-eth.html?highlight=getTransactionCount#gettransactioncount">getTransactionCount</a>вЦ╝ ьєхьЋ┤ вИћвАЮВ▓┤ВЮИ вЁИвЊювАювХђьё░ Ж░ђВаИВўг Вѕў ВъѕвІц.</p>

<h3 id="4-rawtransactionВю╝вАю-ьіИвъюВъГВЁў-ВаёВєА--sendsignedtransaction">4. RawTransactionВю╝вАю ьіИвъюВъГВЁў ВаёВєА : sendSignedTransaction</h3>

<p><a href="https://web3js.readthedocs.io/en/v1.7.3/web3-eth.html?highlight=getTransactionCount#gettransactioncount">sendSignedTransaction</a>ВЮђ RawTransactionВЮё вИћвАЮВ▓┤ВЮИВю╝вАю ВаёВєАьЋўвіћ ьЋеВѕўВЮ┤вІц. ВюёВЮў <a href="https://web3js.readthedocs.io/en/v1.7.3/web3-eth-accounts.html?highlight=signTransaction#signtransaction">eth.accounts.signTransaction</a>вАювХђьё░ ВЃЮВё▒вљю Ж░њВЮё ьЋ┤вІ╣ ьЋеВѕўВЌљ вёБВќ┤ВБ╝вЕ┤ ВЮ┤ВЌљ вДъвіћ ьіИвъюВъГВЁўВЮ┤ ВаёВєАвљювІцЖ│а в│┤вЕ┤ вљювІц.</p>

<div class="language-js highlighter-rouge"><div class="highlight"><pre class="highlight"><code><span class="kd">var</span> <span class="nx">Tx</span> <span class="o">=</span> <span class="nx">require</span><span class="p">(</span><span class="dl">'</span><span class="s1">@ethereumjs/tx</span><span class="dl">'</span><span class="p">).</span><span class="nx">Transaction</span><span class="p">;</span>
<span class="kd">var</span> <span class="nx">privateKey</span> <span class="o">=</span> <span class="nx">Buffer</span><span class="p">.</span><span class="k">from</span><span class="p">(</span><span class="dl">'</span><span class="s1">e331b6d69882b4cb4ea581d88e0b604039a3de5967688d3dcffdd2270c0fd109</span><span class="dl">'</span><span class="p">,</span> <span class="dl">'</span><span class="s1">hex</span><span class="dl">'</span><span class="p">);</span>

<span class="kd">var</span> <span class="nx">rawTx</span> <span class="o">=</span> <span class="p">{</span>
  <span class="na">nonce</span><span class="p">:</span> <span class="dl">'</span><span class="s1">0x00</span><span class="dl">'</span><span class="p">,</span>
  <span class="na">gasPrice</span><span class="p">:</span> <span class="dl">'</span><span class="s1">0x09184e72a000</span><span class="dl">'</span><span class="p">,</span>
  <span class="na">gasLimit</span><span class="p">:</span> <span class="dl">'</span><span class="s1">0x2710</span><span class="dl">'</span><span class="p">,</span>
  <span class="na">to</span><span class="p">:</span> <span class="dl">'</span><span class="s1">0x0000000000000000000000000000000000000000</span><span class="dl">'</span><span class="p">,</span>
  <span class="na">value</span><span class="p">:</span> <span class="dl">'</span><span class="s1">0x00</span><span class="dl">'</span><span class="p">,</span>
  <span class="na">data</span><span class="p">:</span> <span class="dl">'</span><span class="s1">0x7f7465737432000000000000000000000000000000000000000000000000000000600057</span><span class="dl">'</span>
<span class="p">}</span>

<span class="kd">var</span> <span class="nx">tx</span> <span class="o">=</span> <span class="k">new</span> <span class="nx">Tx</span><span class="p">(</span><span class="nx">rawTx</span><span class="p">,</span> <span class="p">{</span><span class="dl">'</span><span class="s1">chain</span><span class="dl">'</span><span class="p">:</span><span class="dl">'</span><span class="s1">ropsten</span><span class="dl">'</span><span class="p">});</span>
<span class="nx">tx</span><span class="p">.</span><span class="nx">sign</span><span class="p">(</span><span class="nx">privateKey</span><span class="p">);</span>

<span class="kd">var</span> <span class="nx">serializedTx</span> <span class="o">=</span> <span class="nx">tx</span><span class="p">.</span><span class="nx">serialize</span><span class="p">();</span>

<span class="c1">// console.log(serializedTx.toString('hex'));</span>
<span class="c1">// 0xf889808609184e72a00082271094000000000000000000000000000000000000000080a47f74657374320000000000000000000000000000000000000000000000000000006000571ca08a8bbf888cfa37bbf0bb965423625641fc956967b81d12e23709cead01446075a01ce999b56a8a88504be365442ea61239198e23d1fce7d00fcfc5cd3b44b7215f</span>

<span class="nx">web3</span><span class="p">.</span><span class="nx">eth</span><span class="p">.</span><span class="nx">sendSignedTransaction</span><span class="p">(</span><span class="dl">'</span><span class="s1">0x</span><span class="dl">'</span> <span class="o">+</span> <span class="nx">serializedTx</span><span class="p">.</span><span class="nx">toString</span><span class="p">(</span><span class="dl">'</span><span class="s1">hex</span><span class="dl">'</span><span class="p">))</span>
<span class="p">.</span><span class="nx">on</span><span class="p">(</span><span class="dl">'</span><span class="s1">receipt</span><span class="dl">'</span><span class="p">,</span> <span class="nx">console</span><span class="p">.</span><span class="nx">log</span><span class="p">);</span>

<span class="o">&gt;</span> <span class="c1">// see eth.getTransactionReceipt() for details</span>
</code></pre></div></div>

<p><br /></p>

<h2 id="Ж▓░вАа">Ж▓░вАа</h2>

<p>Ж▓░вАаВаЂВю╝вАю <u>ВЋёвІѕвІц</u>. ВюёВЌљВёю ьЎЋВЮИьЋа Вѕў ВъѕВЌѕвЊ», rawTransactionВЮё keccak256 ьЋеВѕўвАю в│ђьЎўьЋю Ж░њВЮ┤ЖИ░ вЋївгИВЌљ ВЮ┤вЇћвдгВЏђ вИћвАЮВ▓┤ВЮИВЮ┤ ВЋёвІѕвЇћвЮ╝вЈё ьіИвъюВъГВЁў ьЋ┤ВІюЖ░њВЮђ Вќ╗ВЮё Вѕў ВъѕвІц.</p>

<p><br /></p>

<h2 id="В░ИЖ│аВъљвБї">В░ИЖ│аВъљвБї</h2>
<ul>
  <li><a href="https://brunch.co.kr/@nujabes403/15#comment">ьіИвъюВъГВЁў ьЋ┤ВІю(TXID)ВЌљ вїђьЋю ВўцьЋ┤ - Ж╣ђьЏѕВЮ╝</a></li>
  <li><a href="https://medium.com/@codetractio/inside-an-ethereum-transaction-fa94ffca912f">Inside an Ethereum transaction - Medium</a></li>
  <li><a href="https://web3js.readthedocs.io/en/v1.7.3/index.html">web3.js - Ethereum JavaScript API</a></li>
  <li><a href="http://wiki.hash.kr/index.php/Keccak-256">Keccak256 - ьЋ┤ВІювёи</a></li>
</ul>

<p><br /></p>

<p><a href="#" class="btn btn--primary align-right">вДе ВюёвАю ВЮ┤вЈЎьЋўЖИ░</a></p>

<p><br /></p>

        
        <script async src="https://pagead2.googlesyndication.com/pagead/js/adsbygoogle.js"></script>
        
        <p></p>
        <h4 class="page__meta-title"><span style="font-family:'Chosunilbo_myungjo'; color:#000000;">Ethereum</span> <span style="font-family:'Chosunilbo_myungjo';">В╣┤ьЁїЖ│авдг вѓ┤ вІцвЦИ ЖИђ в│┤вЪгЖ░ђЖИ░</span></h4>
        <!--

  <nav class="pagination">
    
      <a href="/ethereum/contract_import_go/" class="pagination--pager" title="ВЮ┤вЇћвдгВЏђ ВіцвДѕьіИ В╗еьіИвъЎьіИвЦ╝ GoВЌљ в░ћВЮИвћЕ(Binding)ьЋўЖИ░
">ВЮ┤Ваё</a>
    
    
      <a href="/ethereum/encodePacked/" class="pagination--pager" title="ВєћвдгвћћьІ░ВЮў encodePacked, ethersВЮў solidityPack
">вІцВЮї</a>
    
  </nav>

-->




  

  
  	
  	
  	
  	
  	



  <nav class="pagination_prev_next">
    
      <a href="/ethereum/contract_import_go/" class="pagination_prev_next--pager"><span class="prev_next">ВЮ┤Ваё ЖИђ  &nbsp</span>ВЮ┤вЇћвдгВЏђ ВіцвДѕьіИ В╗еьіИвъЎьіИвЦ╝ GoВЌљ в░ћВЮИвћЕ(Binding)ьЋўЖИ░</a>
    
    
      <a href="/ethereum/encodePacked/" class="pagination_prev_next--pager"><span class="prev_next">вІцВЮї ЖИђ  &nbsp  </span>ВєћвдгвћћьІ░ВЮў encodePacked, ethersВЮў solidityPack </a>
    
  </nav>



<!--



-->



        <p></p>

        <!-- archive ВцЉЖ░ё Ж┤ЉЖ│а -->
      
      </section>
      <footer class="page__meta">
        
        <section class="page__share">
  
    <h4 class="page__share-title">Ж│хВюаьЋўЖИ░</h4>
  

  <a href="https://twitter.com/intent/tweet?text=%ED%8A%B8%EB%9E%9C%EC%9E%AD%EC%85%98+%ED%95%B4%EC%8B%9C%28Transaction+Hash%29%EB%8A%94+%EA%BC%AD+%EB%B8%94%EB%A1%9D%EC%B2%B4%EC%9D%B8%EC%97%90%EC%84%9C%EB%A7%8C+%EB%A7%8C%EB%93%A4%EC%96%B4%EC%A7%80%EB%8A%94%EA%B0%80%3F%20http%3A%2F%2Flocalhost%3A4000%2Fethereum%2Ftransactionhash%2F" class="btn btn--twitter" onclick="window.open(this.href, 'window', 'left=20,top=20,width=500,height=500,toolbar=1,resizable=0'); return false;" title="Ж│хВюаьЋўЖИ░ Twitter"><i class="fab fa-fw fa-twitter" aria-hidden="true"></i><span> Twitter</span></a>

  <a href="https://www.facebook.com/sharer/sharer.php?u=http%3A%2F%2Flocalhost%3A4000%2Fethereum%2Ftransactionhash%2F" class="btn btn--facebook" onclick="window.open(this.href, 'window', 'left=20,top=20,width=500,height=500,toolbar=1,resizable=0'); return false;" title="Ж│хВюаьЋўЖИ░ Facebook"><i class="fab fa-fw fa-facebook" aria-hidden="true"></i><span> Facebook</span></a>

  <a href="https://www.linkedin.com/shareArticle?mini=true&url=http%3A%2F%2Flocalhost%3A4000%2Fethereum%2Ftransactionhash%2F" class="btn btn--linkedin" onclick="window.open(this.href, 'window', 'left=20,top=20,width=500,height=500,toolbar=1,resizable=0'); return false;" title="Ж│хВюаьЋўЖИ░ LinkedIn"><i class="fab fa-fw fa-linkedin" aria-hidden="true"></i><span> LinkedIn</span></a>
</section>

      </footer>
    </div>

    

  </article>

  
  
</div>

    </div>

    

    <div id="footer" class="page__footer">
      <footer>
        <!-- start custom footer snippets -->

<!--<script async src="https://pagead2.googlesyndication.com/pagead/js/adsbygoogle.js"></script>-->
<!-- ansohxxn.github.io -->
<!--<ins class="adsbygoogle"
     style="display:block"
     data-ad-client="ca-pub-6111782407607310"
     data-ad-slot="5978510098"
     data-ad-format="auto"
     data-full-width-responsive="true"></ins>
<script>
     (adsbygoogle = window.adsbygoogle || []).push({});
</script>-->
<!-- end custom footer snippets -->
        <div class="page__footer-follow">
  <ul class="social-icons">
    
      <li><strong>ьїћвАюВџ░:</strong></li>
    

    

    <li><a href="/feed.xml"><i class="fas fa-fw fa-rss-square" aria-hidden="true"></i> ьћ╝вЊю</a></li>
  </ul>
</div>

<div class="page__footer-copyright">&copy; 2022 ВЏћвдг. Powered by <a href="https://jekyllrb.com" rel="nofollow">Jekyll</a> &amp; <a href="https://mademistakes.com/work/minimal-mistakes-jekyll-theme/" rel="nofollow">Minimal Mistakes</a>.</div>

      </footer>
    </div>

    <aside class="sidebar__top">
      <a href="#site-nav"> <i class="fas fa-angle-double-up fa-2x"></i></a>
    </aside>

    
  <script src="/assets/js/main.min.js"></script>
  <script src="https://kit.fontawesome.com/4eee35f757.js"></script>







    <script>
  'use strict';

  (function() {
    var commentContainer = document.querySelector('#utterances-comments');

    if (!commentContainer) {
      return;
    }

    var script = document.createElement('script');
    script.setAttribute('src', 'https://utteranc.es/client.js');
    script.setAttribute('repo', 'wnjoon/wnjoon.github.io');
    script.setAttribute('issue-term', 'pathname');
    script.setAttribute('theme', 'github-light');
    script.setAttribute('crossorigin', 'anonymous');

    commentContainer.appendChild(script);
  })();
</script>

  





<script src="https://polyfill.io/v3/polyfill.min.js?features=es6"></script>
<script id="MathJax-script" defer
        src="https://cdn.jsdelivr.net/npm/mathjax@3/es5/tex-mml-chtml.js">
</script>


  </body>
</html>
