<!DOCTYPE html>
<html lang="ko">

  <head>
  <meta charset="utf-8">
  <meta http-equiv="X-UA-Compatible" content="IE=edge">
  <meta name="viewport" content="width=device-width, initial-scale=1">

  
  
  
  <title>트랜잭션 해시(Transaction Hash)는 언제 만들어지는가?</title>
  <meta name="description" content="트랜잭션 해시에 대한 내용과 생성되는 과정 및 시간에 대하여 알아본다. 결론부터 말하자면, 이더리움 블록체인에 전송되기 전에라도 트랜잭션 해시값은 얻을 수 있다.">
  

  <link rel="stylesheet" href="/assets/main.css">
  <link rel="canonical" href="https://wnjoon.github.io/2022/05/20/blockchain-txhash/">
  
  
  <link rel="alternate" type="application/rss+xml" title="👨‍💻 월리의 탐구생활" href="https://wnjoon.github.io/feed.xml">

  

  
  <meta property="og:title" content="트랜잭션 해시(Transaction Hash)는 언제 만들어지는가?">
  <meta property="og:site_name" content="👨‍💻 월리의 탐구생활">
  <meta property="og:url" content="https://wnjoon.github.io/2022/05/20/blockchain-txhash/">
  <meta property="og:description" content="트랜잭션 해시에 대한 내용과 생성되는 과정 및 시간에 대하여 알아본다. 결론부터 말하자면, 이더리움 블록체인에 전송되기 전에라도 트랜잭션 해시값은 얻을 수 있다.">
  
  
  <meta name="twitter:card" content="summary">
  
  <meta name="twitter:title" content="트랜잭션 해시(Transaction Hash)는 언제 만들어지는가?">
  <meta name="twitter:description" content="트랜잭션 해시에 대한 내용과 생성되는 과정 및 시간에 대하여 알아본다. 결론부터 말하자면, 이더리움 블록체인에 전송되기 전에라도 트랜잭션 해시값은 얻을 수 있다.">
  
  

  <link rel="dns-prefetch" href="https://fonts.gstatic.com">
<link rel="preconnect" href="https://fonts.gstatic.com" crossorigin>
<link href="https://fonts.googleapis.com/css2?family=Bitter:ital,wght@0,400;0,700;1,400&amp;display=swap" rel="stylesheet">

  

</head>


  <body>

    <header class="site-header">

  <div class="wrapper">

    <a class="site-title" href="/">👨‍💻 월리의 탐구생활</a>

    <nav class="site-nav">
      
        
        <a class="page-link" href="/about/">About</a>
      
        
        <a class="page-link" href="/categories/">Categories</a>
      
        
        <a class="page-link" href="/tags/">Tags</a>
      
    </nav>

  </div>

</header>


    <main class="page-content" aria-label="Content">
      <div class="wrapper">
        <article class="post" itemscope itemtype="http://schema.org/BlogPosting">

  <header class="post-header">
    
      <h1 class="post-title" itemprop="name headline">트랜잭션 해시(Transaction Hash)는 언제 만들어지는가?</h1>
    
    <p class="post-meta"><time datetime="2022-05-20T06:00:00+00:00" itemprop="datePublished">2022년 5월 20일</time> •
  
    
    
      
    
      
    
      
    
      
    
      
    
      
    
      
    
      
    
      
    
      
    
      
    
      
    
      
    
      
    
      
    
      
    
      
    
      
    
      
    
      
    
      
    
      
    
      
    
      
    
      
    
      
    
      
    
      
    
      
    
      
    
      
    
      
    
      
    
      
    
      
    
      
    
      
    
      
    
      
    
      
    
      
    
      
    
      
    
      
    
      
    
      
    
      
    
      
    
      
    
      
    
      
    
      
    
      
    
      
    
      
    
      
    
      
    
      
    
      
    
      
    
      
    
      
    
      
    
      
    
      
    
      
    
      
    
      
    
      
    
      
    
      
    
      
    
      
    
      
    
      
    
      
    
      
    
      
    
      
    
      
    
      
    
      
    
      
        <a href="/categories/blockchain/">blockchain</a>
      
    
      
    
      
    
      
    
      
    
      
    
      
    
      
    
      
    
      
    
      
    
  


 •
  
    
    
      
    
      
    
      
    
      
    
      
    
      
    
      
    
      
    
      
    
      
    
      
    
      
    
      
    
      
    
      
        <a href="/tags/ethereum/">ethereum</a>,
      
    
      
    
      
    
      
    
      
    
      
    
      
    
      
    
      
    
      
    
      
    
      
    
      
    
      
    
      
    
      
    
      
    
      
    
      
    
      
    
      
    
      
    
      
    
      
    
      
    
      
    
      
    
      
    
      
    
      
    
      
    
      
    
      
    
      
    
      
    
      
    
      
    
      
    
      
    
      
    
      
    
      
    
      
    
      
    
      
    
      
    
      
    
      
    
      
    
      
    
      
    
      
    
      
    
      
    
      
    
      
    
      
    
      
    
      
    
      
    
      
    
      
    
      
    
      
    
      
    
      
    
      
    
      
    
      
    
      
    
      
    
      
    
      
    
      
    
      
    
      
    
      
    
      
    
      
    
  
    
    
      
    
      
    
      
    
      
    
      
    
      
    
      
    
      
    
      
    
      
    
      
    
      
    
      
    
      
    
      
    
      
    
      
    
      
    
      
    
      
    
      
    
      
    
      
    
      
    
      
    
      
    
      
    
      
    
      
    
      
    
      
    
      
    
      
    
      
    
      
    
      
    
      
    
      
    
      
    
      
    
      
    
      
    
      
    
      
    
      
    
      
    
      
    
      
    
      
    
      
    
      
    
      
    
      
        <a href="/tags/transaction/">transaction</a>,
      
    
      
    
      
    
      
    
      
    
      
    
      
    
      
    
      
    
      
    
      
    
      
    
      
    
      
    
      
    
      
    
      
    
      
    
      
    
      
    
      
    
      
    
      
    
      
    
      
    
      
    
      
    
      
    
      
    
      
    
      
    
      
    
      
    
      
    
      
    
      
    
      
    
      
    
      
    
      
    
      
    
  
    
    
      
    
      
    
      
    
      
    
      
    
      
    
      
    
      
    
      
    
      
    
      
    
      
    
      
    
      
    
      
    
      
    
      
    
      
    
      
    
      
    
      
    
      
    
      
    
      
    
      
    
      
    
      
    
      
    
      
    
      
    
      
    
      
    
      
    
      
    
      
    
      
    
      
    
      
    
      
    
      
    
      
    
      
    
      
    
      
    
      
    
      
    
      
    
      
    
      
    
      
    
      
    
      
    
      
    
      
        <a href="/tags/keccak/">keccak</a>
      
    
      
    
      
    
      
    
      
    
      
    
      
    
      
    
      
    
      
    
      
    
      
    
      
    
      
    
      
    
      
    
      
    
      
    
      
    
      
    
      
    
      
    
      
    
      
    
      
    
      
    
      
    
      
    
      
    
      
    
      
    
      
    
      
    
      
    
      
    
      
    
      
    
      
    
      
    
      
    
  

</p>
  </header>

  <div class="post-content" itemprop="articleBody">
    <p><br /></p>

<h2>트랜잭션 해시란?</h2>

<p>트랜잭션 해시(Transaction Hash, 또는 줄여서 TXID)는 <u>트랜잭션에 대한 고유 ID</u>를 의미한다. 일반적으로 트랜잭션은 아래와 같은 정보를 갖는다.</p>

<div class="language-sh highlighter-rouge"><div class="highlight"><pre class="highlight"><code><span class="o">{</span>
  from : 송신자 지갑의 주소,
  to : 수신자 지갑의 주소,
  value : 전송한 이더 또는 토큰의 개수,
  gasPrice : 트랜잭션 전송에 사용되는 가스량,
  ....
<span class="o">}</span>
</code></pre></div></div>

<p><br /></p>

<h2>트랜잭션 해시의 생성 과정</h2>

<p>트랜잭션 해시가 만들어지기 위해서는 위에서 언급한 <u>1) 트랜잭션 정보</u>와 <u>2) 트랜잭션을 전송하는 지갑의 개인키</u>가 필요하다. 개인키를 통해 트랜잭션을 보낸 사람이 본인임을 증명할 수 있는데, 이러한 증명 과정을 <u>서명(signature)</u>이라고 한다.</p>

<p><img src="https://user-images.githubusercontent.com/39115630/169449935-9f3ceda3-a64f-443e-b829-8d75d39f45a7.png" alt="image" /><br />
<em>@그림 1: 트랜잭션 해시가 생성되는 과정</em></p>

<p>트랜잭션 정보와 서명이 블록체인 노드로 전달되면, 블록체인 노드는 두 정보를 RLP encoding을 통해 RawTransaction으로 만든다. 예시로 아래와 같은 RawTransaction이 있다고 할 때, 이를 해석(decode)하면 실제 전송했던 트랜잭션의 내용을 확인할 수 있다. 이 때 확인할 수 있는(들어있는) 내용은 아래와 같다.</p>

<div class="language-sh highlighter-rouge"><div class="highlight"><pre class="highlight"><code><span class="o">{</span>
  nonce : 해당 트랜잭션의 논스값,
  gasPrice : 해당 트랜잭션의 가스 수수료,
  gas : 해당 트랜잭션을 수행할 때의 가스리밋<span class="o">(</span>gasLimit<span class="o">)</span>,
  to : 수신자 지갑 주소,
  value : 전송량,
  data : 트랜잭션에 추가로 보내는 데이터,
  v : 서명 값,
  r : 서명 값,
  s : 서명 값
<span class="o">}</span>
</code></pre></div></div>

<p>위의 내용들이 특정 구문값과 함께 순서대로 조합되어 하나의 16진수 형태로 구성된다. 자세한 내용은 ‘<a href="https://brunch.co.kr/@nujabes403/15#comment">트랜잭션 해시(TXID)에 대한 오해</a>‘를 확인하면 좋다.</p>

<p><br /></p>

<h2>트랜잭션 해시의 생성 방법</h2>

<p>트랜잭션 해시는 결국 <u>keccak256(rawTransaction)</u>의 결과 값이다. <a href="https://leventozturk.com/engineering/sha3/">ONLINE SHA-3 Keccak CALCULATOR - CODE GENERATOR</a>에서 RawTransaction을 keccak256을 통해 트랜잭션 해시로 만들어볼 수 있는데, 해당 트랜잭션이 이더리움 네트워크에 전송되어 있다면 이를 이더스캔(<a href="https://etherscan.io">Etherscan</a>)에서 조회할 수 있다. 여기서 조회 조건인 트랜잭션해시값은 앞에 0x를 붙여줘야 한다.</p>
<ul>
  <li>https://etherscan.io/tx/트랜잭션해시값 : 트랜잭션에 들어가있는 정보들을 볼 수 있다.</li>
  <li>https://etherscan.io/getRawTx?tx=트랜잭션해시값  : 해당 트랜잭션의 RawTransaction을 확인할 수 있다.</li>
</ul>

<p><br /></p>

<h2>Web3js</h2>

<h3>1. 트랜잭션 해시 생성 : eth.sendTransaction</h3>

<p><a href="https://web3js.readthedocs.io/en/v1.7.3/web3-eth.html?highlight=sendTransaction#sendtransaction">web3js.readthedocs.io - eth.sendTransaction</a>에서는 Web3js를 활용한 트랜잭션 전송 및 해시 반환 방법에 대해 설명하고 있다.</p>

<div class="language-js highlighter-rouge"><div class="highlight"><pre class="highlight"><code><span class="c1">// using the event emitter</span>
<span class="nx">web3</span><span class="p">.</span><span class="nx">eth</span><span class="p">.</span><span class="nf">sendTransaction</span><span class="p">({</span>
    <span class="na">from</span><span class="p">:</span> <span class="dl">'</span><span class="s1">0xde0B295669a9FD93d5F28D9Ec85E40f4cb697BAe</span><span class="dl">'</span><span class="p">,</span>
    <span class="na">to</span><span class="p">:</span> <span class="dl">'</span><span class="s1">0x11f4d0A3c12e86B4b5F39B213F7E19D048276DAe</span><span class="dl">'</span><span class="p">,</span>
    <span class="na">value</span><span class="p">:</span> <span class="dl">'</span><span class="s1">1000000000000000</span><span class="dl">'</span>
<span class="p">})</span>
<span class="p">.</span><span class="nf">on</span><span class="p">(</span><span class="dl">'</span><span class="s1">transactionHash</span><span class="dl">'</span><span class="p">,</span> <span class="kd">function</span><span class="p">(</span><span class="nx">hash</span><span class="p">){</span>
    <span class="p">...</span>
<span class="p">})</span>
<span class="p">.</span><span class="nf">on</span><span class="p">(</span><span class="dl">'</span><span class="s1">receipt</span><span class="dl">'</span><span class="p">,</span> <span class="kd">function</span><span class="p">(</span><span class="nx">receipt</span><span class="p">){</span>
    <span class="p">...</span>
<span class="p">})</span>
<span class="p">.</span><span class="nf">on</span><span class="p">(</span><span class="dl">'</span><span class="s1">confirmation</span><span class="dl">'</span><span class="p">,</span> <span class="kd">function</span><span class="p">(</span><span class="nx">confirmationNumber</span><span class="p">,</span> <span class="nx">receipt</span><span class="p">){</span> <span class="p">...</span> <span class="p">})</span>
<span class="p">.</span><span class="nf">on</span><span class="p">(</span><span class="dl">'</span><span class="s1">error</span><span class="dl">'</span><span class="p">,</span> <span class="nx">console</span><span class="p">.</span><span class="nx">error</span><span class="p">);</span> <span class="c1">// If a out of gas error, the second parameter is the receipt.</span>
</code></pre></div></div>

<p>위의 코드에서 .on으로 시작되는 내용들에 대한 설명은 아래와 같다.</p>
<ul>
  <li>on(‘transactionHash’ …) : 트랜잭션 해시가 노드로부터 반환되었을 경우 실행할 내용들</li>
  <li>on(‘receipt’ …) : 트랜잭션이 블록에 포함되었을 경우 실행할 내용들</li>
  <li>on(‘confirmation’ …) : 트랜잭션이 블록체인에서 confirm 되었을 경우 실행할 내용들</li>
  <li>on(‘error’ …) : 트랜잭션 전송 과정에서 에러가 발생하였을 경우 실행할 내용들</li>
</ul>

<h3>2. RawTransaction 생성 : eth.accounts.signTransaction</h3>

<p>위의 내용이 트랜잭션을 전송하는 함수였다면, 이 함수(<a href="https://web3js.readthedocs.io/en/v1.7.3/web3-eth-accounts.html?highlight=signTransaction#signtransaction">eth.accounts.signTransaction</a>)는 트랜잭션의 정보와 개인키를 이용하여 rawTransaction을 생성해주는 함수이다.</p>

<div class="language-js highlighter-rouge"><div class="highlight"><pre class="highlight"><code><span class="nx">web3</span><span class="p">.</span><span class="nx">eth</span><span class="p">.</span><span class="nx">accounts</span><span class="p">.</span><span class="nf">signTransaction</span><span class="p">({</span>
    <span class="na">to</span><span class="p">:</span> <span class="dl">'</span><span class="s1">0xF0109fC8DF283027b6285cc889F5aA624EaC1F55</span><span class="dl">'</span><span class="p">,</span>
    <span class="na">value</span><span class="p">:</span> <span class="dl">'</span><span class="s1">1000000000</span><span class="dl">'</span><span class="p">,</span>
    <span class="na">gas</span><span class="p">:</span> <span class="mi">2000000</span><span class="p">,</span>
    <span class="na">gasPrice</span><span class="p">:</span> <span class="dl">'</span><span class="s1">234567897654321</span><span class="dl">'</span><span class="p">,</span>
    <span class="na">nonce</span><span class="p">:</span> <span class="mi">0</span><span class="p">,</span>
    <span class="na">chainId</span><span class="p">:</span> <span class="mi">1</span>
<span class="p">},</span> <span class="dl">'</span><span class="s1">0x4c0883a69102937d6231471b5dbb6204fe5129617082792ae468d01a3f362318</span><span class="dl">'</span><span class="p">)</span>
<span class="p">.</span><span class="nf">then</span><span class="p">(</span><span class="nx">console</span><span class="p">.</span><span class="nx">log</span><span class="p">);</span>
<span class="o">&gt;</span> <span class="p">{</span>
    <span class="na">messageHash</span><span class="p">:</span> <span class="dl">'</span><span class="s1">0x6893a6ee8df79b0f5d64a180cd1ef35d030f3e296a5361cf04d02ce720d32ec5</span><span class="dl">'</span><span class="p">,</span>
    <span class="na">r</span><span class="p">:</span> <span class="dl">'</span><span class="s1">0x9ebb6ca057a0535d6186462bc0b465b561c94a295bdb0621fc19208ab149a9c</span><span class="dl">'</span><span class="p">,</span>
    <span class="na">s</span><span class="p">:</span> <span class="dl">'</span><span class="s1">0x440ffd775ce91a833ab410777204d5341a6f9fa91216a6f3ee2c051fea6a0428</span><span class="dl">'</span><span class="p">,</span>
    <span class="na">v</span><span class="p">:</span> <span class="dl">'</span><span class="s1">0x25</span><span class="dl">'</span><span class="p">,</span>
    <span class="na">rawTransaction</span><span class="p">:</span> <span class="dl">'</span><span class="s1">0xf86a8086d55698372431831e848094f0109fc8df283027b6285cc889f5aa624eac1f55843b9aca008025a009ebb6ca057a0535d6186462bc0b465b561c94a295bdb0621fc19208ab149a9ca0440ffd775ce91a833ab410777204d5341a6f9fa91216a6f3ee2c051fea6a0428</span><span class="dl">'</span>
    <span class="na">transactionHash</span><span class="p">:</span> <span class="dl">'</span><span class="s1">0xd8f64a42b57be0d565f385378db2f6bf324ce14a594afc05de90436e9ce01f60</span><span class="dl">'</span>
<span class="p">}</span>

<span class="p">}</span>
</code></pre></div></div>

<p>결국 이 함수를 활용하면 트랜잭션을 블록체인에 전송하지 않고도 rawTransaction을 얻을 수 있고, 이를 keccak256 함수로 반환하여 미리 트랜잭션 해시값을 확인할 수도 있다.</p>

<h3>3. Nonce</h3>

<p>그런데 위의 eth.accounts.signTransaction 함수를 보면 논스(nonce) 값이 필요하다. 블록체인에 실제 트랜잭션을 전송하지 않고도 어떻게 논스를 확인할 수 있을까?<br />
여기서의 논스는 <u>트랜잭션을 전송하는 지갑의 trasnaction count, 즉 특정 지갑(계정)이 지금까지 블록체인에 전송한 트랜잭션의 개수</u>를 의미한다. 이 값은 <a href="https://web3js.readthedocs.io/en/v1.7.3/web3-eth.html?highlight=getTransactionCount#gettransactioncount">getTransactionCount</a>를 통해 블록체인 노드로부터 가져올 수 있다.</p>

<h3>4. RawTransaction으로 트랜잭션 전송 : sendSignedTransaction</h3>

<p><a href="https://web3js.readthedocs.io/en/v1.7.3/web3-eth.html?highlight=getTransactionCount#gettransactioncount">sendSignedTransaction</a>은 RawTransaction을 블록체인으로 전송하는 함수이다.<br />
위의 <a href="https://web3js.readthedocs.io/en/v1.7.3/web3-eth-accounts.html?highlight=signTransaction#signtransaction">eth.accounts.signTransaction</a>로부터 생성된 값을 해당 함수에 넣어주면 이에 맞는 트랜잭션이 전송된다고 보면 된다.</p>

<div class="language-js highlighter-rouge"><div class="highlight"><pre class="highlight"><code><span class="kd">var</span> <span class="nx">Tx</span> <span class="o">=</span> <span class="nf">require</span><span class="p">(</span><span class="dl">'</span><span class="s1">@ethereumjs/tx</span><span class="dl">'</span><span class="p">).</span><span class="nx">Transaction</span><span class="p">;</span>
<span class="kd">var</span> <span class="nx">privateKey</span> <span class="o">=</span> <span class="nx">Buffer</span><span class="p">.</span><span class="nf">from</span><span class="p">(</span><span class="dl">'</span><span class="s1">e331b6d69882b4cb4ea581d88e0b604039a3de5967688d3dcffdd2270c0fd109</span><span class="dl">'</span><span class="p">,</span> <span class="dl">'</span><span class="s1">hex</span><span class="dl">'</span><span class="p">);</span>

<span class="kd">var</span> <span class="nx">rawTx</span> <span class="o">=</span> <span class="p">{</span>
  <span class="na">nonce</span><span class="p">:</span> <span class="dl">'</span><span class="s1">0x00</span><span class="dl">'</span><span class="p">,</span>
  <span class="na">gasPrice</span><span class="p">:</span> <span class="dl">'</span><span class="s1">0x09184e72a000</span><span class="dl">'</span><span class="p">,</span>
  <span class="na">gasLimit</span><span class="p">:</span> <span class="dl">'</span><span class="s1">0x2710</span><span class="dl">'</span><span class="p">,</span>
  <span class="na">to</span><span class="p">:</span> <span class="dl">'</span><span class="s1">0x0000000000000000000000000000000000000000</span><span class="dl">'</span><span class="p">,</span>
  <span class="na">value</span><span class="p">:</span> <span class="dl">'</span><span class="s1">0x00</span><span class="dl">'</span><span class="p">,</span>
  <span class="na">data</span><span class="p">:</span> <span class="dl">'</span><span class="s1">0x7f7465737432000000000000000000000000000000000000000000000000000000600057</span><span class="dl">'</span>
<span class="p">}</span>

<span class="kd">var</span> <span class="nx">tx</span> <span class="o">=</span> <span class="k">new</span> <span class="nc">Tx</span><span class="p">(</span><span class="nx">rawTx</span><span class="p">,</span> <span class="p">{</span><span class="dl">'</span><span class="s1">chain</span><span class="dl">'</span><span class="p">:</span><span class="dl">'</span><span class="s1">ropsten</span><span class="dl">'</span><span class="p">});</span>
<span class="nx">tx</span><span class="p">.</span><span class="nf">sign</span><span class="p">(</span><span class="nx">privateKey</span><span class="p">);</span>

<span class="kd">var</span> <span class="nx">serializedTx</span> <span class="o">=</span> <span class="nx">tx</span><span class="p">.</span><span class="nf">serialize</span><span class="p">();</span>

<span class="c1">// console.log(serializedTx.toString('hex'));</span>
<span class="c1">// 0xf889808609184e72a00082271094000000000000000000000000000000000000000080a47f74657374320000000000000000000000000000000000000000000000000000006000571ca08a8bbf888cfa37bbf0bb965423625641fc956967b81d12e23709cead01446075a01ce999b56a8a88504be365442ea61239198e23d1fce7d00fcfc5cd3b44b7215f</span>

<span class="nx">web3</span><span class="p">.</span><span class="nx">eth</span><span class="p">.</span><span class="nf">sendSignedTransaction</span><span class="p">(</span><span class="dl">'</span><span class="s1">0x</span><span class="dl">'</span> <span class="o">+</span> <span class="nx">serializedTx</span><span class="p">.</span><span class="nf">toString</span><span class="p">(</span><span class="dl">'</span><span class="s1">hex</span><span class="dl">'</span><span class="p">))</span>
<span class="p">.</span><span class="nf">on</span><span class="p">(</span><span class="dl">'</span><span class="s1">receipt</span><span class="dl">'</span><span class="p">,</span> <span class="nx">console</span><span class="p">.</span><span class="nx">log</span><span class="p">);</span>

<span class="o">&gt;</span> <span class="c1">// see eth.getTransactionReceipt() for details</span>
</code></pre></div></div>

<p><br /></p>

<h2>결론</h2>

<p>위에서 확인할 수 있었듯, rawTransaction을 keccak256 함수로 변환한 값이기 때문에 이더리움 블록체인에 전송되기 전에라도 트랜잭션 해시값은 얻을 수 있다.</p>

<p><br /></p>

<h2>참고자료</h2>
<ul>
  <li><a href="https://brunch.co.kr/@nujabes403/15#comment">트랜잭션 해시(TXID)에 대한 오해 - 김훈일</a></li>
  <li><a href="https://medium.com/@codetractio/inside-an-ethereum-transaction-fa94ffca912f">Inside an Ethereum transaction - Medium</a></li>
  <li><a href="https://web3js.readthedocs.io/en/v1.7.3/index.html">web3.js - Ethereum JavaScript API</a></li>
  <li><a href="http://wiki.hash.kr/index.php/Keccak-256">Keccak256 - 해시넷</a></li>
</ul>

  </div>

  
    <div class="post-comments" itemprop="comment">
      <script src="https://utteranc.es/client.js"
        repo="wnjoon/comments"
        issue-term="pathname"
        theme="github-light"
        crossorigin="anonymous"
        async>
</script>
    </div>
  

</article>

      </div>
    </main>

    <footer class="site-footer">

  <div class="wrapper">

    <p>
      

&copy; Wonjoon - Powered by <a href="https://jekyllrb.com">Jekyll</a> &amp; <a href="https://github.com/yous/whiteglass">whiteglass</a> - Subscribe via <a href="https://wnjoon.github.io/feed.xml">RSS</a>

    </p>

  </div>

</footer>


  </body>

</html>
