<!DOCTYPE html>
<html lang="ko">

  <head>
  <meta charset="utf-8">
  <meta http-equiv="X-UA-Compatible" content="IE=edge">
  <meta name="viewport" content="width=device-width, initial-scale=1">

  
  
  
  <title>트랜잭션 해시(Transaction Hash)에 대한 설명과 생성 과정</title>
  <meta name="description" content="An explanation of what a transaction hash is and how it is created in Ethereum.">
  
    
    <meta name="keywords" content="blockchain,ethereum,keccak">
  

  <link rel="stylesheet" href="/assets/main.css">
  <link rel="canonical" href="https://wnjoon.github.io/2022/05/20/blockchain-txhash/">
  
  
  <link rel="alternate" type="application/rss+xml" title="👨‍💻 월리의 탐구생활" href="https://wnjoon.github.io/feed.xml">

  

  
  <meta property="og:title" content="트랜잭션 해시(Transaction Hash)에 대한 설명과 생성 과정">
  <meta property="og:site_name" content="👨‍💻 월리의 탐구생활">
  <meta property="og:url" content="https://wnjoon.github.io/2022/05/20/blockchain-txhash/">
  <meta property="og:description" content="An explanation of what a transaction hash is and how it is created in Ethereum.">
  
  
  <meta name="twitter:card" content="summary">
  
  <meta name="twitter:title" content="트랜잭션 해시(Transaction Hash)에 대한 설명과 생성 과정">
  <meta name="twitter:description" content="An explanation of what a transaction hash is and how it is created in Ethereum.">
  
  

  <link rel="dns-prefetch" href="https://fonts.gstatic.com">
<link rel="preconnect" href="https://fonts.gstatic.com" crossorigin>
<link href="https://fonts.googleapis.com/css2?family=Bitter:ital,wght@0,400;0,700;1,400&amp;display=swap" rel="stylesheet">

  

</head>


  <body>

    <header class="site-header">

  <div class="wrapper">

    <a class="site-title" href="/">👨‍💻 월리의 탐구생활</a>

    <nav class="site-nav">
      
        
        <a class="page-link" href="/about/">About</a>
      
        
        <a class="page-link" href="/categories/">Categories</a>
      
        
        <a class="page-link" href="/tags/">Tags</a>
      
    </nav>

  </div>

</header>


    <main class="page-content" aria-label="Content">
      <div class="wrapper">
        <article class="post" itemscope itemtype="http://schema.org/BlogPosting">

  <header class="post-header">
    
      <h1 class="post-title" itemprop="name headline">트랜잭션 해시(Transaction Hash)에 대한 설명과 생성 과정</h1>
    
    <p class="post-meta"><time datetime="2022-05-20T06:00:00+00:00" itemprop="datePublished">2022년 5월 20일</time> •
  
    
    
      
    
      
    
      
    
      
    
      
    
      
    
      
    
      
    
      
    
      
    
      
    
      
    
      
    
      
    
      
    
      
    
      
    
      
    
      
    
      
    
      
    
      
    
      
    
      
    
      
    
      
    
      
    
      
    
      
    
      
    
      
    
      
    
      
    
      
    
      
    
      
    
      
    
      
    
      
    
      
    
      
    
      
    
      
        <a href="/categories/%EB%B8%94%EB%A1%9D%EC%B2%B4%EC%9D%B8/">블록체인</a>
      
    
      
    
      
    
      
    
      
    
      
    
      
    
      
    
      
    
      
    
      
    
      
    
      
    
  


 •
  
    
    
      
    
      
    
      
    
      
    
      
    
      
    
      
    
      
        <a href="/tags/ethereum/">ethereum</a>,
      
    
      
    
      
    
      
    
      
    
      
    
      
    
      
    
      
    
      
    
      
    
      
    
      
    
      
    
      
    
      
    
      
    
      
    
      
    
      
    
      
    
      
    
      
    
      
    
      
    
      
    
      
    
      
    
      
    
      
    
      
    
      
    
      
    
      
    
      
    
      
    
      
    
      
    
      
    
      
    
      
    
      
    
      
    
      
    
      
    
      
    
      
    
      
    
  
    
    
      
    
      
    
      
    
      
    
      
    
      
    
      
    
      
    
      
    
      
    
      
    
      
    
      
    
      
    
      
    
      
    
      
    
      
    
      
    
      
    
      
    
      
    
      
    
      
    
      
    
      
        <a href="/tags/web3js/">web3js</a>
      
    
      
    
      
    
      
    
      
    
      
    
      
    
      
    
      
    
      
    
      
    
      
    
      
    
      
    
      
    
      
    
      
    
      
    
      
    
      
    
      
    
      
    
      
    
      
    
      
    
      
    
      
    
      
    
      
    
      
    
  

</p>
  </header>

  <div class="post-content" itemprop="articleBody">
    <p><br /></p>

<h2>서명은 되었지만 아직 블록으로 만들어지지 못한 트랜잭션, RawTransaction</h2>

<p>트랜잭션 해시(Transaction Hash)는 <u>트랜잭션에 대한 고유 ID</u>를 의미한다. 일반적으로 트랜잭션은 아래와 같은 정보를 갖는다.</p>

<div class="language-sh highlighter-rouge"><div class="highlight"><pre class="highlight"><code><span class="o">{</span>
  from : 송신자 지갑의 주소,
  to : 수신자 지갑의 주소,
  value : 전송한 이더 또는 토큰의 개수,
  gasPrice : 트랜잭션 전송에 사용되는 가스량,
  ....
<span class="o">}</span>
</code></pre></div></div>

<p>이러한 트랜잭션 해시가 만들어지기 위해서는 위에서 언급한 <u>트랜잭션 정보</u>와 <u>트랜잭션을 전송하는 사용자(EOA)의 개인키</u>가 필요하다. 개인키를 통해 트랜잭션을 보낸 사람이 누구인지를 증명할 수 있는데, 이러한 증명 과정을 <u>서명(signature)</u>이라고 한다.</p>

<p align="center" style="color:gray">
  <img src="https://user-images.githubusercontent.com/39115630/169449935-9f3ceda3-a64f-443e-b829-8d75d39f45a7.png" alt="트랜잭션 해시의 생성 과정" />
  <br />
   트랜잭션 해시의 생성 과정 (이더리움으로 갔다고 해서 배포된 것은 아니라는 것을 향후에 설명할 것)
</p>
<p><br /></p>

<p>트랜잭션 정보와 서명이 블록체인 노드로 전달되면, 블록체인 노드는 두 정보를 포함한 데이터를 <a href="https://wnjoon.github.io/2022/09/12/blockchain-rlp">RLP 방식</a>을 통해 인코딩하게 되는데, 이 때 만들어지는 것이 RawTransaction이다. RawTransaction 내부를 확인해보면 아래와 같다.</p>

<div class="language-sh highlighter-rouge"><div class="highlight"><pre class="highlight"><code><span class="o">{</span>
  nonce : 해당 트랜잭션의 논스값,
  gasPrice : 해당 트랜잭션의 가스 수수료,
  gas : 해당 트랜잭션을 수행할 때의 가스리밋<span class="o">(</span>gasLimit<span class="o">)</span>,
  to : 수신자 지갑 주소,
  value : 전송량,
  data : 트랜잭션에 추가로 보내는 데이터,
  v : 서명 값,
  r : 서명 값,
  s : 서명 값
<span class="o">}</span>
</code></pre></div></div>

<p>위의 내용들이 특정 구문값과 함께 순서대로 조합되어 하나의 16진수 형태로 구성된다. 자세한 내용은 아래 참고자료에 추가한 ‘<a href="https://brunch.co.kr/@nujabes403/15#comment">트랜잭션 해시(TXID)에 대한 오해</a>‘를 확인하면 좋다.</p>

<p>그렇다면 실제 트랜잭션의 해시는 어떻게 얻을 수 있을까? 이더리움에서는 서명까지 완료된 RawTransaction을 Keccak256 방식으로 해싱하여 트랜잭션 해시를 생성한다. 즉, 블록체인에 배포되어 블록으로 생성되기 전에도 트랜잭션 해시 값은 미리 확인할 수 있다.</p>

<p><br /></p>

<h2>Web3js로 알아보기</h2>

<h3>2.1. eth.sendTransaction</h3>

<p><a href="https://web3js.readthedocs.io/en/v1.7.3/web3-eth.html?highlight=sendTransaction#sendtransaction">sendTransaction</a>은 파라미터로 전달된 값을 바이트 형태로 조합한 후, 함께 전달된 사용자 주소에 해당하는 개인키로 서명하여 블록체인에 전송하는 일련의 과정을 한번에 처리해준다.<br />
뒤에서 다룰 내용인 동일한 데이터값을 블록체인에 전송하기 전 서명하여 트랜잭션 해시로 만들었을 때의 값과 비교하기 위해 실행해본다.</p>

<div class="language-js highlighter-rouge"><div class="highlight"><pre class="highlight"><code><span class="c1">// using the event emitter</span>
<span class="nx">web3</span><span class="p">.</span><span class="nx">eth</span><span class="p">.</span><span class="nx">sendTransaction</span><span class="p">({</span>
    <span class="na">from</span><span class="p">:</span> <span class="dl">'</span><span class="s1">0xde0B295669a9FD93d5F28D9Ec85E40f4cb697BAe</span><span class="dl">'</span><span class="p">,</span>
    <span class="na">to</span><span class="p">:</span> <span class="dl">'</span><span class="s1">0x11f4d0A3c12e86B4b5F39B213F7E19D048276DAe</span><span class="dl">'</span><span class="p">,</span>
    <span class="na">value</span><span class="p">:</span> <span class="dl">'</span><span class="s1">1000000000000000</span><span class="dl">'</span>
<span class="p">})</span>
<span class="p">.</span><span class="nx">on</span><span class="p">(</span><span class="dl">'</span><span class="s1">transactionHash</span><span class="dl">'</span><span class="p">,</span> <span class="kd">function</span><span class="p">(</span><span class="nx">hash</span><span class="p">){</span>
    <span class="p">...</span>
<span class="p">})</span>
<span class="p">.</span><span class="nx">on</span><span class="p">(</span><span class="dl">'</span><span class="s1">receipt</span><span class="dl">'</span><span class="p">,</span> <span class="kd">function</span><span class="p">(</span><span class="nx">receipt</span><span class="p">){</span>
    <span class="p">...</span>
<span class="p">})</span>
<span class="p">.</span><span class="nx">on</span><span class="p">(</span><span class="dl">'</span><span class="s1">confirmation</span><span class="dl">'</span><span class="p">,</span> <span class="kd">function</span><span class="p">(</span><span class="nx">confirmationNumber</span><span class="p">,</span> <span class="nx">receipt</span><span class="p">){</span> <span class="p">...</span> <span class="p">})</span>
<span class="p">.</span><span class="nx">on</span><span class="p">(</span><span class="dl">'</span><span class="s1">error</span><span class="dl">'</span><span class="p">,</span> <span class="nx">console</span><span class="p">.</span><span class="nx">error</span><span class="p">);</span> <span class="c1">// If a out of gas error, the second parameter is the receipt.</span>
</code></pre></div></div>

<p>위의 코드에서 .on으로 시작되는 내용들에 대한 설명은 아래와 같다.</p>

<ul>
  <li>on(‘transactionHash’ …) : 트랜잭션 해시가 노드로부터 반환되었을 경우 실행할 내용들</li>
  <li>on(‘receipt’ …) : 트랜잭션이 블록에 포함되었을 경우 실행할 내용들</li>
  <li>on(‘confirmation’ …) : 트랜잭션이 블록체인에서 confirm 되었을 경우 실행할 내용들</li>
  <li>on(‘error’ …) : 트랜잭션 전송 과정에서 에러가 발생하였을 경우 실행할 내용들</li>
</ul>

<h3>2.2. eth.accounts.signTransaction</h3>

<p><a href="https://web3js.readthedocs.io/en/v1.7.3/web3-eth-accounts.html?highlight=signTransaction#signtransaction">signTransaction</a>은 말그대로 트랜잭션 형태로 만들어진 바이트 데이터를 전달된 사용자의 개인키로 서명한다. 이 때 생성된 값이 RawTransaction이 된다.</p>

<div class="language-js highlighter-rouge"><div class="highlight"><pre class="highlight"><code><span class="nx">web3</span><span class="p">.</span><span class="nx">eth</span><span class="p">.</span><span class="nx">accounts</span><span class="p">.</span><span class="nx">signTransaction</span><span class="p">({</span>
    <span class="na">to</span><span class="p">:</span> <span class="dl">'</span><span class="s1">0xF0109fC8DF283027b6285cc889F5aA624EaC1F55</span><span class="dl">'</span><span class="p">,</span>
    <span class="na">value</span><span class="p">:</span> <span class="dl">'</span><span class="s1">1000000000</span><span class="dl">'</span><span class="p">,</span>
    <span class="na">gas</span><span class="p">:</span> <span class="mi">2000000</span><span class="p">,</span>
    <span class="na">gasPrice</span><span class="p">:</span> <span class="dl">'</span><span class="s1">234567897654321</span><span class="dl">'</span><span class="p">,</span>
    <span class="na">nonce</span><span class="p">:</span> <span class="mi">0</span><span class="p">,</span>
    <span class="na">chainId</span><span class="p">:</span> <span class="mi">1</span>
<span class="p">},</span> <span class="dl">'</span><span class="s1">0x4c0883a69102937d6231471b5dbb6204fe5129617082792ae468d01a3f362318</span><span class="dl">'</span><span class="p">)</span>
<span class="p">.</span><span class="nx">then</span><span class="p">(</span><span class="nx">console</span><span class="p">.</span><span class="nx">log</span><span class="p">);</span>
<span class="o">&gt;</span> <span class="p">{</span>
    <span class="na">messageHash</span><span class="p">:</span> <span class="dl">'</span><span class="s1">0x6893a6ee8df79b0f5d64a180cd1ef35d030f3e296a5361cf04d02ce720d32ec5</span><span class="dl">'</span><span class="p">,</span>
    <span class="na">r</span><span class="p">:</span> <span class="dl">'</span><span class="s1">0x9ebb6ca057a0535d6186462bc0b465b561c94a295bdb0621fc19208ab149a9c</span><span class="dl">'</span><span class="p">,</span>
    <span class="na">s</span><span class="p">:</span> <span class="dl">'</span><span class="s1">0x440ffd775ce91a833ab410777204d5341a6f9fa91216a6f3ee2c051fea6a0428</span><span class="dl">'</span><span class="p">,</span>
    <span class="na">v</span><span class="p">:</span> <span class="dl">'</span><span class="s1">0x25</span><span class="dl">'</span><span class="p">,</span>
    <span class="na">rawTransaction</span><span class="p">:</span> <span class="dl">'</span><span class="s1">0xf86a8086d55698372431831e848094f0109fc8df283027b6285cc889f5aa624eac1f55843b9aca008025a009ebb6ca057a0535d6186462bc0b465b561c94a295bdb0621fc19208ab149a9ca0440ffd775ce91a833ab410777204d5341a6f9fa91216a6f3ee2c051fea6a0428</span><span class="dl">'</span>
    <span class="na">transactionHash</span><span class="p">:</span> <span class="dl">'</span><span class="s1">0xd8f64a42b57be0d565f385378db2f6bf324ce14a594afc05de90436e9ce01f60</span><span class="dl">'</span>
<span class="p">}</span>

<span class="p">}</span>
</code></pre></div></div>

<p>결과 값을 보면 transactionHash를 볼 수 있는데, 결국 트랜잭션이 블록에 포함되지 않아도(더 나아가 블록체인에 트랜잭션을 전송하지 않아도) 생성된 rawTransaction을 keccak256 함수로 해싱하여 미리 트랜잭션 해시값을 확인할 수 있다.</p>

<blockquote>
  <p><strong>Nonce</strong></p>

  <p>논스는 <u>트랜잭션을 전송하는 지갑의 trasnaction count, 즉 특정 지갑(계정)이 지금까지 블록체인에 전송한 트랜잭션의 개수</u>를 의미한다.
위의 eth.accounts.signTransaction 함수를 보면 트랜잭션 전송에는 필히 논스(nonce) 값이 필요하다는 것을 알 수 있는데, <a href="https://web3js.readthedocs.io/en/v1.7.3/web3-eth.html?highlight=getTransactionCount#gettransactioncount">getTransactionCount</a>를 통해 현재까지 해당 사용자가 블록체인으로 전송한 트랜잭션의 수를 미리 확인할 수 있다.<br />
즉 모든 트랜잭션은 전송하기 전 블록체인으로부터 현재 사용자가 사용할 수 있는 논스값을 먼저 확인해야 하는데, 이러한 블록체인 접근 과정을 최소화하여 성능을 개선 하기 위해 redis와 같은 별도의 논스 관리 시스템을 사용하기도 한다.</p>
</blockquote>

<h3>2.3. eth.sendSignedTransaction</h3>

<p><a href="https://web3js.readthedocs.io/en/v1.7.3/web3-eth.html?highlight=getTransactionCount#gettransactioncount">sendSignedTransaction</a>은 서명된 트랜잭션인 RawTransaction을 블록체인으로 전송할때 사용한다.</p>

<div class="language-js highlighter-rouge"><div class="highlight"><pre class="highlight"><code><span class="kd">var</span> <span class="nx">Tx</span> <span class="o">=</span> <span class="nx">require</span><span class="p">(</span><span class="dl">'</span><span class="s1">@ethereumjs/tx</span><span class="dl">'</span><span class="p">).</span><span class="nx">Transaction</span><span class="p">;</span>
<span class="kd">var</span> <span class="nx">privateKey</span> <span class="o">=</span> <span class="nx">Buffer</span><span class="p">.</span><span class="k">from</span><span class="p">(</span><span class="dl">'</span><span class="s1">e331b6d69882b4cb4ea581d88e0b604039a3de5967688d3dcffdd2270c0fd109</span><span class="dl">'</span><span class="p">,</span> <span class="dl">'</span><span class="s1">hex</span><span class="dl">'</span><span class="p">);</span>

<span class="kd">var</span> <span class="nx">rawTx</span> <span class="o">=</span> <span class="p">{</span>
  <span class="na">nonce</span><span class="p">:</span> <span class="dl">'</span><span class="s1">0x00</span><span class="dl">'</span><span class="p">,</span>
  <span class="na">gasPrice</span><span class="p">:</span> <span class="dl">'</span><span class="s1">0x09184e72a000</span><span class="dl">'</span><span class="p">,</span>
  <span class="na">gasLimit</span><span class="p">:</span> <span class="dl">'</span><span class="s1">0x2710</span><span class="dl">'</span><span class="p">,</span>
  <span class="na">to</span><span class="p">:</span> <span class="dl">'</span><span class="s1">0x0000000000000000000000000000000000000000</span><span class="dl">'</span><span class="p">,</span>
  <span class="na">value</span><span class="p">:</span> <span class="dl">'</span><span class="s1">0x00</span><span class="dl">'</span><span class="p">,</span>
  <span class="na">data</span><span class="p">:</span> <span class="dl">'</span><span class="s1">0x7f7465737432000000000000000000000000000000000000000000000000000000600057</span><span class="dl">'</span>
<span class="p">}</span>

<span class="kd">var</span> <span class="nx">tx</span> <span class="o">=</span> <span class="k">new</span> <span class="nx">Tx</span><span class="p">(</span><span class="nx">rawTx</span><span class="p">,</span> <span class="p">{</span><span class="dl">'</span><span class="s1">chain</span><span class="dl">'</span><span class="p">:</span><span class="dl">'</span><span class="s1">ropsten</span><span class="dl">'</span><span class="p">});</span>
<span class="nx">tx</span><span class="p">.</span><span class="nx">sign</span><span class="p">(</span><span class="nx">privateKey</span><span class="p">);</span>

<span class="kd">var</span> <span class="nx">serializedTx</span> <span class="o">=</span> <span class="nx">tx</span><span class="p">.</span><span class="nx">serialize</span><span class="p">();</span>

<span class="c1">// console.log(serializedTx.toString('hex'));</span>
<span class="c1">// 0xf889808609184e72a00082271094000000000000000000000000000000000000000080a47f74657374320000000000000000000000000000000000000000000000000000006000571ca08a8bbf888cfa37bbf0bb965423625641fc956967b81d12e23709cead01446075a01ce999b56a8a88504be365442ea61239198e23d1fce7d00fcfc5cd3b44b7215f</span>

<span class="nx">web3</span><span class="p">.</span><span class="nx">eth</span><span class="p">.</span><span class="nx">sendSignedTransaction</span><span class="p">(</span><span class="dl">'</span><span class="s1">0x</span><span class="dl">'</span> <span class="o">+</span> <span class="nx">serializedTx</span><span class="p">.</span><span class="nx">toString</span><span class="p">(</span><span class="dl">'</span><span class="s1">hex</span><span class="dl">'</span><span class="p">))</span>
<span class="p">.</span><span class="nx">on</span><span class="p">(</span><span class="dl">'</span><span class="s1">receipt</span><span class="dl">'</span><span class="p">,</span> <span class="nx">console</span><span class="p">.</span><span class="nx">log</span><span class="p">);</span>

<span class="o">&gt;</span> <span class="c1">// see eth.getTransactionReceipt() for details</span>
</code></pre></div></div>

<p><br />
<br /></p>

<hr />

<h2>참고자료</h2>

<ul>
  <li><a href="https://brunch.co.kr/@nujabes403/15#comment">트랜잭션 해시(TXID)에 대한 오해 - 김훈일</a></li>
  <li><a href="https://medium.com/@codetractio/inside-an-ethereum-transaction-fa94ffca912f">Inside an Ethereum transaction - Medium</a></li>
  <li><a href="https://web3js.readthedocs.io/en/v1.7.3/index.html">web3.js - Ethereum JavaScript API</a></li>
  <li><a href="http://wiki.hash.kr/index.php/Keccak-256">Keccak256 - 해시넷</a></li>
</ul>

  </div>

  
    <div class="post-comments" itemprop="comment">
      <script src="https://utteranc.es/client.js"
        repo="wnjoon/comments"
        issue-term="pathname"
        theme="github-light"
        crossorigin="anonymous"
        async>
</script>
    </div>
  

</article>

      </div>
    </main>

    <footer class="site-footer">

  <div class="wrapper">

    <p>
      

&copy; Wonjoon - Powered by <a href="https://jekyllrb.com">Jekyll</a> &amp; <a href="https://github.com/yous/whiteglass">whiteglass</a> - Subscribe via <a href="https://wnjoon.github.io/feed.xml">RSS</a>

    </p>

  </div>

</footer>


  </body>

</html>
